:020000040800F2
:1000000000000220790A0008AD0A0008AD0A0008C5
:10001000AD0A0008AD0A0008AD0A000800000000A3
:10002000000000000000000000000000AD0A000811
:10003000AD0A000800000000AD0A0008AD0A000883
:10004000AD0A0008AD0A0008AD0A0008AD0A0008B4
:10005000AD0A0008AD0A0008AD0A0008AD0A0008A4
:10006000AD0A0008AD0A0008AD0A0008AD0A000894
:10007000AD0A0008AD0A0008AD0A0008AD0A000884
:10008000AD0A0008AD0A0008AD0A00080000000033
:10009000000000000000000000000000AD0A0008A1
:1000A000AD0A0008AD0A0008AD0A0008AD0A000854
:1000B000AD0A0008AD0A0008AD0A0008AD0A000844
:1000C000AD0A0008AD0A0008AD0A0008AD0A000834
:1000D000AD0A0008AD0A0008AD0A000800000000E3
:1000E000AD0A0008AD0A0008AD0A000800000000D3
:1000F000000000000000000000000000AD0A000841
:1001000000000000AD0A0008AD0A0008AD0A0008B2
:1001100000000000000000000000000000000000DF
:10012000AD0A0008AD0A0008AD0A0008AD0A0008D3
:10013000AD0A000800000000000000000000000000
:10014000000000000000000000000000AD0A0008F0
:10015000AD0A0008AD0A0008AD0A0008AD0A0008A3
:10016000AD0A0008AD0A0008000000000000000011
:10017000000000000000000000000000000000007F
:1001800000000000AD0A00080000000000000000B0
:10019000AD0A0008AD0A0008044B05481B1A062BDF
:1001A00002D9044B03B11847704700BF5F0A002013
:1001B0005C0A00200000000005490648091A891061
:1001C00001EBD171491002D0034B03B118477047BE
:1001D0005C0A00205C0A00200000000010B5064CFC
:1001E000237843B9FFF7D8FF044B13B10448AFF3AA
:1001F00000800123237010BD600A00200000000071
:1002000058B2000808B5084B1BB108480849AFF3BD
:1002100000800848036813B9BDE80840CCE7064BE6
:10022000002BF9D09847F7E70000000058B200080B
:10023000640A0020580A002000000000134B002B25
:1002400008BF114B9D46A3F5803A00218B460F460F
:100250001148124A121A03F007FD0D4B002B00D073
:1002600098470C4B002B00D0984700200021040039
:100270000D000B4800F027FF03F006FB20002900CB
:1002800001F03EF800F01CFF000008000000022012
:1002900000000000F1120008600A00200017002092
:1002A0002931000803681B69184703689B691847D0
:1002B00003689B6A18474FF0FF3070471120704762
:1002C00070477047704770474FF0FF30704737B541
:1002D000013B13440468BDF8185001951BB200930C
:1002E000A46E0B46A04703B030BD2DE9F347BDF91E
:1002F0002880BDF82C90054617460C4601EB030AF2
:1003000054450BDA2B68CDF80090DE6E214643464B
:100310003A4628460134B04724B2F1E702B0BDE8BE
:10032000F0872DE9F3470768BDF82C60BDF928A0D8
:1003300000960446FF6D91460D469846B8472368DF
:1003400000960AF1FF324A44DF6D294643462046B3
:1003500012B2B84723680096DF6E4A4653462946D4
:100360002046B84723680A9608F1FF312944DD6E1C
:100370004A46534609B22046AC4602B0BDE8F047B3
:10038000604737B5BDF8185004688DE82400013B7C
:100390000B44A46E1BB2A04703B030BD13B5B0F937
:1003A0001E200468019100920022B0F91C30246FD5
:1003B0001146A04702B010BD2DE9F04F85B01E4692
:1003C000BDF938B0BDF83C3001938046C2EB0B005C
:1003D0000C46154602F09EFC8146301B02F09AFC4A
:1003E0008145824605DD33465E469B4623462C46C4
:1003F0001D46B44205DD2B465D469B4623463446EA
:100400001E46331B9BB2C5EB0B00009302F082FC2F
:100410000223BDF9007097FBF3F75D45B4BF0123DC
:100420004FF0FF3303900293A6421BDBD8F8003055
:10043000D145D3F854B0019BC7BF224629462A466E
:1004400021464046D847039BFF1ABBB21FB2002F7C
:1004500005DA029A1544009AD7182DB23FB201343A
:1004600024B2E1E705B0BDE8F08F00002DE9F04FC0
:100470008FB005460C93BDF860300693BDF864302C
:100480000793B0F91C3005918B429DF8688040F3CA
:100490008280B0F91E3093427DDD052313FB0811E5
:1004A000002978DD02EBC801002974DD0B9396B2B8
:1004B0000623089306F108039BB200240D93052C34
:1004C0001CBFBDF83020BDF82C3004961CBF13FBB8
:1004D0000243324A039618BF12F803901FFA88F3BA
:1004E0000293029ABDF8143004FB023213FA84F32B
:1004F00012B21BB208BF4FF00009099237460FFA3B
:1005000088FA0A9319F0010F11D0B8F1010F2B6886
:1005100003D1D3F854B0069B14E0069A0192CDF8AB
:1005200000A0D3F870B0BDF90C20534618E0069B2C
:10053000079A934217D0B8F1010F2B6807D1D3F86F
:1005400054B013463AB20A992846D8470BE0079AA6
:100550000192CDF800A0BDF91020D3F870B0534639
:1005600009992846D847039B029A13449BB20393E8
:10057000049B13449BB2013704930D9BBFB29F426F
:100580004FEA5909BED1089B013B013413F0FF0328
:1005900064B2089393D10FB0BDE8F08FB4A4000803
:1005A00030B50A2985B004460B4605D190F82820BD
:1005B000438C03EBC20326E00D2925D090F8285088
:1005C000B0F92220B0F920100295C58C0195858CD8
:1005D0000095FFF74BFF94F82820238C91B201EB94
:1005E000410003EB400394F82A001BB2238468B156
:1005F000B4F91C006FF0050505FB0202934205DD0E
:10060000638C03EBC103638400232384012005B0C2
:1006100030BDC9B2FFF7C4BF0368184708B10B6803
:10062000036070477047000070B52A4C2A4A23784F
:100630004FF4C07505FB032505F5C07615F8011BC1
:10064000264801F026FF0021254801F022FF254B16
:100650001A68D96812040A609A681B681360B54268
:10066000ECD1214A936811681960237811461F4A1A
:1006700013F0010F07BFD06812689068126808BFB6
:10068000120402601A4A13F0020F07BFD068126802
:100690009068126808BF12040260164A90681568D4
:1006A0000560D0681268120402600A68C8680133E5
:1006B000DBB212040260032B0F4A88BF00232370B1
:1006C00053681968136819420EBF9268D2681B04F8
:1006D000136070BD6C120020B40A00201C110020B1
:1006E000D010002068110020980A002084110020FA
:1006F000B4100020501200207C0A002010B5044BDA
:1007000003607C330446436002F052FA204610BD79
:1007100030A40008A0F10400FFF7F0BF10B50446B4
:10072000FFF7ECFF204600F00BFD204610BDA0F1C6
:100730000400F3E738B51C2204460D46002103F0FF
:1007400093FA2046294601F003FF204638BD0000F9
:1007500010B5044601F0A6FE2046064B40F8283BA3
:100760000021102203F080FA012384F8383020465B
:1007700010BD00BF94AE00080022002306491144BA
:10078000C8540133B3F5C07FF8D102F5C072B2F599
:10079000C06FF2D1704700BFB40A002030B5C1F37A
:1007A000C203134CE45C00F0F80301F0040503EB12
:1007B000430300F007002B4400EB430301F0030167
:1007C0004FF4C070484310FA83F00A4B184400F10C
:1007D0001003403013F8101CD5074CBF2143A14330
:1007E00003F8101C103383424FEA5202F2D130BD9D
:1007F0009C010020B40A0020C8B2D1B2DAB2FFF7DF
:10080000CDBFC36810B504460BB19B68984720461E
:1008100010BD000038B50546064B45F8283B044698
:1008200001F04DFF2846FFF7ECFF204601F062FE85
:10083000204638BD94AE000810B50446FFF7EAFF25
:10084000204600F07DFC204610BD38B5CB6804463C
:100850000D460BB15B689847EB68E360204638BDF6
:1008600030B5294889B003F061FA102200216846AA
:1008700003F0FAF9254B00936946254B039304A82E
:10088000FFF7E3FF02F0A4F8224B5A6B12B993F87A
:100890003830B3BB204C2046FFF7B3FF1CB12046D5
:1008A00004A9FFF7D2FF4FF416620023194801F0A4
:1008B000EEFE02F0B9F804A8FFF7A3FF6846FFF7C1
:1008C000A0FF002400250020FFF756FF29462246FE
:1008D000124803F02BFAE8B221460422FFF75EFF2C
:1008E0000135052002F085F9402DEBD03F2DEAD1EE
:1008F0000134E4B20F2CE6D10020FFF73DFF0024C5
:10090000E1E701F075FEC5E74CAA000829060008DA
:10091000B0A90008D0110020F811002054AA000846
:100920002DE9F041444C454DDFF84481444F8EB0F1
:100930002046002102F014F9402323836383A3831C
:10094000E383002323846384E38484F829303D4BCC
:100950003D49012603F10802A68484F8286084F842
:100960002A60226084332A46204663604FF0FF34B9
:1009700000F0A4FB14238DE818000294039404945F
:10098000059406940794089409940A940B940C9483
:100990001523404613210A2201F0F2FC39462A466B
:1009A0004046DFF8D08000F089FB07238DE818006F
:1009B00002941623039404940594069407940894CF
:1009C00009940A940B940C9440460921272201F0C3
:1009D000D7FC2A463946404600F070FB05211B48EB
:1009E0001B4CFFF7A7FE21211A48FFF7A3FE314653
:1009F00019481A4EFFF79EFE10211948FFF79AFE7C
:100A000004211848FFF796FE20211748FFF792FEB1
:100A10003046FFF79DFE3046144E21462A4600F030
:100A20004DFB3046FFF794FE304621462A460EB075
:100A3000BDE8F04100F042BBA01100209801002069
:100A400045230008C0A90008FD0600087C0A002014
:100A50001508000884110020B4100020D0110020D7
:100A60006811002050120020980A00201012002067
:100A70001C110020D0100020DFF820D0002103E05E
:100A8000074B5B58435004310648074B42189A42C3
:100A9000F6D301F03DFBFFF7D1FB704700000220C9
:100AA000D4B20008980100205C0A0020FEE7000094
:100AB0007FB50023072855D8DFE800F00413202D68
:100AC0003A54544700932A4B2A481A6B42F00102C9
:100AD0001A631B6B03F001030093009B07B05DF8E2
:100AE00004FB0193224B24481A6B42F002021A6362
:100AF0001B6B03F002030193019BEFE702931C4B76
:100B00001E481A6B42F004021A631B6B03F00403C5
:100B10000293029BE2E70393154B19481A6B42F0CC
:100B200008021A631B6B03F008030393039BD5E7CA
:100B300004930F4B13481A6B42F010021A631B6B9D
:100B400003F010030493049BC8E70593084B0E4879
:100B50001A6B42F080021A631B6B03F0800305934B
:100B6000059BBBE7094801F0CDFE0020B6E700BFBA
:100B70000038024000000240000402400008024029
:100B8000000C024000100240001C02400CAB0008A8
:100B9000431C10B5044604D174220649064801F0EE
:100BA0009FFE2046002100F0CFFB04F00F0401203F
:100BB000A04010BD2DAB00088BAB000870B50446FB
:100BC0004B1C0E46218216D0C1F30310FFF770FFB5
:100BD00005463046FFF7DCFF238A074A656103F0CC
:100BE0000F03206052F82330A36105F1100318357C
:100BF0006360A560E56070BD4CAC0008B0F9100002
:100C000000F03ABC10B58369446971B9216893FA60
:100C1000A3F2B2FA82F20320520000FA02F221EAB1
:100C2000020293FAA3F3226010BD226893FAA3F1A3
:100C3000B1FA81F193FAA3F30320490000FA01F11C
:100C4000B3FA83F322EA01025B00012101FA03F304
:100C50001343236010BD000070B5134C23681A695C
:100C6000950707D5DA68900704D56FF002021A617C
:100C700001F0F4FC23681A69510713D5DA685207AA
:100C800010D56FF00402094E1A615D6A3368EB1AE1
:100C9000B3F57A7F06D300F071FD236805F57A720B
:100CA0009A63356070BD00BFC0160020701200202E
:100CB00030B589B001A903A801F022F800F0F0FFD7
:100CC00000230293254B01901A6C254C42F0080238
:100CD0001A641A6C02F008020292029A1A6A42F02E
:100CE00008021A621A6A22F008021A62069AA3F52A
:100CF0000B3323604FF0FF33E3601A4B002A2AD1F5
:100D0000B0FBF3F001380025606015482561A5604F
:100D1000656101F061F8144B144A9B681048C3F8F0
:100D20000821134B4FF480225A60294601F090F8B5
:100D300004210B4801F08CF823680E4A596A1160AF
:100D4000126802F57A729A63DA68284642F0040261
:100D5000DA6009B030BD4000D2E700BF0038024081
:100D6000C016002040420F0000ED00E0590C0008C2
:100D700000E100E07012002010B588B001F028FEFC
:100D8000052101A801F0E4FB0424039B019A1A60E9
:100D9000962001F02EFF019B049A1B0413609620FD
:100DA00001F027FF013CF0D10424039B019A1A6053
:100DB0004FF4C87001F01DFF019B049A1B041360DF
:100DC0004FF4C87001F015FF013CEED1DCE70000E4
:100DD00070B50D46A0B0044601F0FAFD2B46224640
:100DE0008021684604F092FD051E03DC01F01CFE24
:100DF00020B070BD094B1B6823B9032202210848AB
:100E000000F0D0FB064E00241DF8041030460134DB
:100E100000F088FCA542F7D1E8E700BF841300206A
:100E2000701600200FB407B504A951F8040B019106
:100E3000FFF7CEFF03B05DF804EB04B0704708B5D0
:100E400001F012FA00F082FC01F004FABDE808405B
:100E500001F00ABA08B5084B1B685BB902210748C4
:100E6000032200F09FFB4FF416510448BDE80840F0
:100E700000F042BC08BD00BF8413002070160020A3
:100E8000022810B501DC002010BDC31E0B4A52F829
:100E90002300002142F8231030B901F03FFF09235D
:100EA00003604FF0FF3010BD03685B699847041E74
:100EB000E9DA01F033FF64420460F2E774120020C3
:100EC0000228F8B50D4614460EDC134B1B680BB90F
:100ED000FFF7C0FF114E2F19BD4210D015F8011BAE
:100EE000304600F01FFCF7E703380D4B53F82000A5
:100EF00038B901F013FF092303604FF0FF34204697
:100F0000F8BD0368DB689847041EF8DA01F006FFB5
:100F100063420360F3E700BF8413002070160020D3
:100F200074120020022810B50C460BDC104B1B6815
:100F30000BB9FFF78FFF0F4800F0E2FB2070012490
:100F4000204610BD03380C4B53F8200030B901F097
:100F5000E5FE092303604FF0FF34F1E703689B6867
:100F60009847041EECDA01F0D9FE63420360E7E71C
:100F7000841300207016002074120020022810B57F
:100F800016DD03380B4B53F820402CB901F0C6FE98
:100F900009230360204610BD23682046DB6998477B
:100FA000041EF7DA01F0BAFE644204600024F1E79F
:100FB0000124EFE774120020022810B506DC01F0CE
:100FC000ADFE1D2303604FF0FF3010BD03380A4B08
:100FD00053F8200018B901F0A1FE0923F2E70368D5
:100FE0001B699847041E04DA01F098FE644204600D
:100FF000E9E7204610BD00BF74120020022838B572
:101000000D4604DC4FF400534B60002038BD03381C
:101010000D4B53F8204034B901F080FE09230360E2
:101020004FF0FF3038BD23682046DB699847002821
:1010300014BF4FF400534FF400436B602368204605
:101040009B6A98472861E0E77412002008B50120E8
:1010500000F036F80C4A136810B51844EFF3088115
:10106000884205D3094B0C221A604FF0FF3010BDA7
:1010700007490C6824B10749096821448842F1D224
:101080001060184610BD00BFA4010020FC1600200F
:101090007C13002080130020074C08B52368054608
:1010A000986801F04BFF2368D86801F047FF0DB145
:1010B000FFF762FEFEE700BFD80500200120704761
:1010C00008B5FFF7E9FF01207047002102F0D4BE08
:1010D0001FB504220C463A230DEB020101900DF1DD
:1010E00009008DF8083002F0C1FC214602A802F088
:1010F00075F8044638B101980368DB69984710B168
:101100002046FFF7E2FF204604B010BD704770474D
:1011100008B5FFF7FBFF08BD08B5FFF7F8FF08BDEE
:1011200010B502F049FC044610B9024801F0EAFB90
:10113000204610BD15AC000808B102F045BC704750
:10114000FFF7FABF034610B553F8042B044602B963
:10115000036022689A4204D05D220349034801F0EB
:10116000BFFB206810BD00BF9EAB000801AC0008AB
:1011700010B504460948FFF7E5FF0023084A194661
:1011800052F82300A04208BF42F823100133402B3D
:10119000F6D10248FFF7D6FF10BD00BF7413002040
:1011A000741200202DE9FF4789464049064602F0A7
:1011B0003BFF044628B9FFF74DFE204604B0BDE8CA
:1011C000F0873B49304602F02FFF18B9FFF742FE87
:1011D0000124F2E73749304602F026FF18B9FFF73D
:1011E00039FE0224E9E73448344DFFF7ABFF002411
:1011F000A84655F82470002F40D00134402CF8D177
:1012000001F08CFD182303602B48FFF79BFF0EE0D5
:10121000314602A801F08CFB02A801F0CDFB064686
:1012200040B901F07BFD1323036045F824604FF0C3
:10123000FF34C2E702A801F0ADFB074602A81FB1C8
:1012400001F0B1FB01902BE001F09BFB064600286A
:10125000E7D0036802A8D3F808A001F087FB29F4BF
:101260008033024601A93046D0470646C0B101F09E
:1012700055FD7642066045F82470D8E74FF0FF33FD
:101280000D4845F82430FFF75DFF337801973A2B7E
:10129000BED10422711C02A802F0E8FB029B01935C
:1012A000019B48F82430033487E700BF3AAC0008BC
:1012B00041AC000832AC0008741300207412002006
:1012C00070477047074B08499A68084810B5043AB8
:1012D00052F8044F41F8044F8142F9D14FF00052C7
:1012E0009A6010BD00ED00E0FCFFFF1F940100209C
:1012F00008B5FFF7E7FFFFF7A2FDFFF7E2FF08BD24
:1013000008B5FFF7DDFFBDE80840FFF7A9BA30B523
:10131000C36891FAA1F4B4FA84F491FAA1F1032517
:10132000B1FA81F1640005FA04F4490023EA0403E8
:1013300002FA01F11943C16030BD012A02D0022A2C
:1013400018BF0022FFF7E3BF2DE9F0410E46411C14
:10135000044604D13E224449444801F0C1FA04F055
:101360000F08434BC4F3031053F82850FFF7A0FBBA
:1013700006F007070446836895FAA5F1B1FA81F1F2
:1013800095FAA5F20320490000FA01F1B2FA82F2BF
:1013900023EA01035200022101FA02F21343A3607F
:1013A00087425AD8DFE807F05E1D021DB8F1070F2B
:1013B000C6F303203BD9626A2B0A93FAA3F1B1FA70
:1013C00081F193FAA3F34FF00F0EB3FA83F3890080
:1013D0000EFA01F19B0022EA010200FA03F3134323
:1013E00063623B46226895FAA5F0B0FA80F095FA60
:1013F000A5F14FF0030EB1FA81F140000EFA00F0B2
:10140000490022EA00028B40013F1343012F236071
:1014100005D8636832074CBF2B43AB436360C6F308
:10142000011229462046BDE8F041FFF786BF226A37
:1014300095FAA5F3B3FA83F395FAA5F14FF00F0EE1
:10144000B1FA81F19B000EFA03F3890022EA03024C
:1014500000FA01F313432362C3E7672202490548F8
:1014600001F03EFA0023BDE78CAC00088BAB00080E
:101470004CAC0008E8AC0008431C70B506460D46AD
:1014800004D188221B491C4801F02AFA06F00F02F9
:101490001A4BC6F3031053F82240FFF709FB04FB75
:1014A00004F2016802EB42030B40B3FBF2F3013B91
:1014B000012B05D8EB1E022B436809D82343436058
:1014C000032D08D101222146BDE87040FFF735BF4A
:1014D00023EA04034360012DF4D0052D01D0022D31
:1014E00001D10222EFE721460022BDE87040FFF75C
:1014F0000EBF00BF8CAC00088BAB00084CAC0008E2
:1015000042681649920110B5046854505318826815
:101510005A60C2689A600269DA6042691A61026AB6
:101520009A610022DA84DA619A84DA859A85B0F9C0
:101530001A2001320AD108225A61184600F0A5FD8E
:1015400058B10748BDE8104001F0DCB9B0F91820E7
:1015500001320CBF04220C22EEE710BDF013002074
:10156000EAAC00084368094A9B0182B0D3581A6864
:10157000120706D5002201921A6801925A68019258
:10158000019A1868C0F3401002B07047F0130020B1
:101590004368034A9B01D3581868C0F3C0107047D2
:1015A000F0130020F0B50E4685B004464949304698
:1015B000154601F00DF848490746284601F008F89D
:1015C0000146384600F0E6FF2060013004D13E229B
:1015D0004249434801F084F92368424A93421ED0AD
:1015E00002F5806293425ED0A2F5504293422BD125
:1015F0003D4B1A6A42F400321A621A6A22F400322F
:101600001A62002202921A6C42F400321A641B6CB5
:1016100003F400330293029B0123636014E0324B16
:101620005A6A42F010025A625A6A002122F01002ED
:101630005A6201915A6C42F010025A645B6C61600C
:1016400003F010030193019B2249304600F084FF10
:101650002149284600F080FF721C03D0012130464A
:10166000FFF70AFF6B1C03D001212846FFF704FF98
:101670004FF41653A3600023E36023616361236288
:10168000268365832046FFF73BFF2268174B9A426B
:1016900007D1174B174801221A6021464C2202F04D
:1016A000E5F905B0F0BD104B5A6A42F020025A62CB
:1016B0005A6A22F020025A62002203925A6C42F0C7
:1016C00020025A645B6C03F020030393039B052301
:1016D000A3E700BFB8AA000864AA000802AD00088A
:1016E00074AD000800100140003802400044004082
:1016F00084130020701600208160FFF701BF0000F6
:1017000038B5446805462846FFF72CFF0028FAD074
:10171000A401034B1B595868C0F3080038BD00BF33
:10172000F013002070B5456806460C463046FFF7BA
:101730002FFF0028FAD0AD01024B5B59C4F3080417
:101740005C6070BDF01300207047000008B50A4BC4
:101750001A6842F400721A601A6842F480621A60D1
:101760001A6842F480721A600F20FFF7A1FAFFF79F
:10177000EBFF002008BD00BF003C0240024A136896
:1017800001331360704700BFBC160020014B18687E
:10179000704700BFBC1600200368F7B50446D807A1
:1017A0003BD42368990700F1868023681E0700F167
:1017B000D18023685D072AD5002301938E4B8F4D7E
:1017C0001A6C42F080521A641B6C03F08053019330
:1017D000019B2B6843F480732B60FFF7D7FF06460D
:1017E0002B68DA0540F1D880A368834D012B40F0C7
:1017F000DA802B6F43F001032B67FFF7C7FF7E4DA5
:10180000064641F288372B6F9B0740F1ED80A269B5
:10181000002A40F0F980002015E0774B9A6802F02A
:101820000C02042A07D09A6802F00C02082A0CD194
:101830005B685A0209D5704B1B689B03B1D563687E
:10184000002BAED1012003B0F0BD63686A4DB3F543
:10185000803F11D12B6843F480332B60FFF796FF54
:10186000654D06462B689F039BD4FFF78FFF801BB7
:101870006428F7D90320E6E7B3F5A02F04D12B683D
:1018800043F480232B60E5E72A6822F480322A6043
:101890002A6822F480222A60002BDFD1FFF776FF2E
:1018A00006462B6898037FF57CAFFFF76FFF801B20
:1018B0006428F6D9DEE7504B9A6812F00C0F07D077
:1018C0009A6802F00C02082A16D15B68590213D4F8
:1018D000494B1A68920702D5E268012AB2D118680A
:1018E000F82292FAA2F2B2FA82F122698A4020F03A
:1018F000F8010A431A6058E7E268414BDAB1012265
:101900001A60FFF743FF3C4D06462B689B070CD53A
:101910002968F82393FAA3F3B3FA83F22369934077
:1019200021F0F80213432B603FE7FFF72FFF801BE6
:101930000228EAD99EE71A60FFF728FF2E4D0646D7
:101940002B689F077FF531AFFFF720FF801B022830
:10195000F6D98FE762692B4B7AB101221A60FFF743
:1019600015FF254D06466B6F98073FF522AFFFF731
:101970000DFF801B0228F6D97CE71A60FFF706FFEF
:101980001D4D06466B6F99077FF513AFFFF7FEFEFF
:10199000801B0228F6D96DE7FFF7F8FE801B0228AE
:1019A0007FF61EAF66E7052B04D12B6F43F00403CF
:1019B0002B671EE72A6F22F001022A672A6F22F0A6
:1019C00004022A67002B7FF418AFFFF7DFFE41F215
:1019D000883706462B6F98077FF519AFFFF7D6FEBD
:1019E000801BB842F6D945E7FFF7D0FE801BB8420E
:1019F0007FF609AF3EE700BF0038024000700040AC
:101A000000004742800E47422B4DAB6803F00C03A9
:101A1000082B3FF417AF294E0023022A33603ED132
:101A2000FFF7B4FE07462B68990132D447F6C0771A
:101A300097FAA7F74FF44032B7FA87F792FAA2F273
:101A40004FF07061B2FA82F091FAA1F1226AE36973
:101A50001343626A02FA07F7A26A5208013A824007
:101A60003B431343E26A144CB1FA81F102FA01F1EB
:101A70000B436B6001233360FFF788FE0546236844
:101A80009A013FF5C8AEFFF781FE401B0228F6D948
:101A9000F0E6FFF77BFEC01B0228C4D9EAE6FFF799
:101AA00075FE04462B689B017FF5B5AEFFF76EFE11
:101AB000001B0228F6D9DDE60038024060004742EC
:101AC000194A936803F00C03042B10B503D0082BBC
:101AD00003D0164810BD164810BD5168536801F078
:101AE0003F0113F4800F47F6C074536894FAA4F0D2
:101AF000B0FA80F003EA040323FA00F314BF0C48A1
:101B00000A48B0FBF1F05843074B4FF440325B6892
:101B100092FAA2F2B2FA82F203F44033D3400133D4
:101B20005B00B0FBF3F010BD003802400024F4006D
:101B300000127A00564B1A6802F00F028A422DE911
:101B4000F04105460E4630D32A68940737D4D007B3
:101B50003DD44F4B1A6802F00F029642C0F08880C5
:101B60002A68510700F18C80130707D5494A296973
:101B7000936823F4604343EAC1039360FFF7A0FF37
:101B8000444BF0229B6892FAA2F2B2FA82F203F07E
:101B9000F003D340404AD35CD840404B18600F203C
:101BA000FFF786F80020BDE8F081CAB21A701B6802
:101BB00003F00F039942C7D00120BDE8F0813549F9
:101BC000A8688B6823F0F00303438B60BFE76A6863
:101BD000304B012A1ED11B6813F4003FECD02D4C72
:101BE000A36823F003031343A360FFF7CFFD6B68E3
:101BF000012B074641F2883816D1A36803F00C0385
:101C0000042BA6D0FFF7C2FDC01B4045F5D9032029
:101C1000BDE8F081911E01291B6802D813F0007FF6
:101C2000DCE713F0020FD9E7022B0AD1A36803F017
:101C30000C03082B8DD0FFF7A9FDC01B4045F5D93B
:101C4000E5E7032B0FD1A36803F00C030C2B80D026
:101C5000FFF79CFDC01B4045F5D9D8E7FFF796FD7F
:101C6000C01B4045D3D8A36813F00C0FF6D170E722
:101C7000F2B21A701B6803F00F039E429CD16FE70B
:101C80000449E8688B6823F4E05303438B606BE7F7
:101C9000003C02400038024090AD0008A80100203E
:101CA000084B4FF4E0529B6892FAA2F2B2FA82F229
:101CB00003F4E053D340044AD35C044A1068D8408C
:101CC000704700BF00380240A0AD0008A801002006
:101CD000084B4FF460429B6892FAA2F2B2FA82F289
:101CE00003F46043D340044AD35C044A1068D840EC
:101CF000704700BF00380240A0AD0008A8010020D6
:101D00000F2303600B4B9A6802F0030242609A684B
:101D100002F0F00282609A6802F4E052C2609B68AE
:101D2000DB0803F4E0530361034B1B6803F00F036C
:101D30000B60704700380240003C024070470000D2
:101D4000224A036890420ED0B0F1804F0BD0A2F52A
:101D50007C42904207D002F58062904203D002F5A7
:101D60008062904219D14A6823F070031343174AE6
:101D7000904204D1CA6823F44073134318E0B0F1D1
:101D8000804FF7D0124A9042F4D002F58062904220
:101D9000F0D002F580629042ECD00E4A9042E9D039
:101DA00002F580629042E5D002F580629042E1D077
:101DB00003608B68C3620B688362044B984204BF64
:101DC0000B69036301234361704700BF00000140BA
:101DD000000400400040014010B50446A0B190F856
:101DE000393003F0FF021BB980F83820FFF7A6FF57
:101DF000022384F839302068211DFFF7A1FF012359
:101E000084F83930002010BD012010BD036A10B5E0
:101E100001248C4023EA04030362036A8A401A43C4
:101E2000026210BD10B5044601220068FFF7EEFF04
:101E30002368064A934202BF5A6C42F400425A6435
:101E40001A6842F001021A60002010BD0000014033
:101E5000FFF7E8BF2DE9F0470668C2683369C1693A
:101E600023F4405313433361044683680069F268E6
:101E70000343606922F41642034322F00C020B4331
:101E80001343F3607369A26923F440731343B1F5FC
:101E9000004F73617A4B7CD19E4203D003F580637F
:101EA0009E4244D1FFF714FF192505FB00F360683B
:101EB0004FF064094000B3FBF0F3B3FBF9F34FEAD2
:101EC0000318FFF705FF636868435B00B0FBF3F797
:101ED000FFF7FEFE636868435B00B0FBF3F3B3FB00
:101EE000F9F309FB1373DB003233B3FBF9F35B0047
:101EF00003F4F877FFF7ECFE626868435200B0FB2A
:101F0000F2FAFFF7E5FE636868435B00B0FBF3F3AA
:101F1000B3FBF9F309FB13A3DB003233B3FBF9F393
:101F200003F0070343443B44B360BDE8F087FFF789
:101F3000B7FE192505FB00F360684FF06409400007
:101F4000B3FBF0F3B3FBF9F34FEA0318FFF7A8FE76
:101F5000636868435B00B0FBF3F7FFF7A1FE6368BB
:101F600068435B00B0FBF3F3B3FBF9F309FB1373B6
:101F7000DB003233B3FBF9F35B0003F4F877FFF7D0
:101F80008FFE626868435200B0FBF2FAFFF788FEEA
:101F9000B9E79E4202D03B4B9E4240D1FFF798FEEC
:101FA000676819254FF0640905FB00F3BF00B3FB18
:101FB000F7F3B3FBF9F31F01FFF78AFE6368684389
:101FC0009B00B0FBF3F8FFF783FE636868439B0058
:101FD000B0FBF3F3B3FBF9F309FB13831B013233BB
:101FE000B3FBF9F303F0F008FFF772FE6268684391
:101FF0009200B0FBF2FAFFF76BFE636868439B0048
:10200000B0FBF3F3B3FBF9F309FB13A31B0132336A
:10201000B3FBF9F303F00F0343EA080383E7FFF789
:102020003FFE676819254FF0640905FB00F3BF0008
:10203000B3FBF7F3B3FBF9F31F01FFF731FE63685E
:1020400068439B00B0FBF3F8FFF72AFE6368684320
:102050009B00B0FBF3F3B3FBF9F309FB13831B0104
:102060003233B3FBF9F303F0F008FFF719FE6268AF
:1020700068439200B0FBF2FAFFF712FEBDE700BF23
:102080000010014000140140704710B5044640B3F1
:1020900090F8393003F0FF021BB980F83820FFF7C1
:1020A000F3FF2268242384F83930D36823F40053E3
:1020B000D3602046FFF7CEFE23681A6922F49042CF
:1020C0001A615A6922F02A025A61DA6842F400520F
:1020D000DA6000202023E06384F8393084F83A3055
:1020E00010BD012010BD7FB50F2301930223029381
:1020F0004FF480520023032101A803930492059317
:10210000FFF718FDB0FA80F0400907B05DF804FB56
:102110000F49D1F8883043F47003C1F888300D4B73
:102120001A68002042F001021A6098601A6822F0D2
:10213000847222F480321A60074A5A601A6822F4C4
:1021400080221A60D8604FF000638B60704700BF38
:1021500000ED00E0003802401030002400B58FB0E0
:102160001C4B002100911A6C42F080521A641B6CC7
:10217000194A03F080530093009B0191136823F4E4
:10218000404343F400431360136803F44043019356
:10219000019B01230293C0B94FF4803303930223C0
:1021A00008934FF48003099304230A930C930823A4
:1021B000C8220DEB03000B920D93FFF7EDFA38B92F
:1021C000FFF791FF0FB05DF804FB4FF4A023E5E7A4
:1021D0000020F7E7003802400070004010B58EB0D4
:1021E00000241A4B00941A6C42F080521A641B6C43
:1021F000174A03F080530093009B0194136823F463
:10220000404343F4004313601368039403F44043D2
:102210000193019B09940323029301230593102347
:1022200006930223C822089308230B920DEB0300A8
:1022300004220A930C920D93FFF7AEFA18B9FFF738
:1022400052FF0EB010BD2046FBE700BF0038024031
:102250000070004008B50120FFF780FF18B9FFF7B4
:10226000BDFF00B9FEE708BD174A1849936803F09F
:102270000C03042B10B50DD0082B0DD0144B0B60A4
:10228000114B144A9B68C3F30313D25C0B68D34011
:102290000B6010BD104BF2E754685068526863023F
:1022A000C2F3881200F03F004CBF0B4B084BB3FB4E
:1022B000F0F35343044A5268C2F301420132520020
:1022C000B3FBF2F3DBE700BF00380240A8010020B7
:1022D0000024F40090AD000800127A00704700005E
:1022E000014B586A704700BF000C0040054B1B684B
:1022F000DA6822F00202DA605863DA6842F0020219
:10230000DA607047C0160020034B1A68536943F027
:1023100002035361704700BFC0160020034B1A68C8
:10232000D36823F00203D360704700BFC0160020BB
:10233000024B1B686FF002021A617047C016002042
:102340007047000070B50446074B44F8043B05464F
:1023500000F1440654F8040B08B1FEF7F1FEB44254
:10236000F8D1284670BD00BFB0AD000810B50446D6
:10237000FFF7E8FF2046FEF7E3FE204610BD000011
:102380002DE9F04188B00546ADF80430BDF938308C
:10239000ADF80630BDF93C30ADF80830BDF940303D
:1023A000ADF80A30BDF94430ADF80C30BDF9483015
:1023B000ADF80E30BDF94C30ADF81030BDF95030ED
:1023C000ADF81230BDF95430ADF81430BDF95830C5
:1023D000ADF81630BDF95C30ADF81830BDF960309D
:1023E000ADF81A30BDF964301948ADF81C3000243E
:1023F000BDF968302860ADF80010ADF80220ADF8E6
:102400001E306C642F1D3DF91480B8F1FF3F1DD0C4
:102410001C20FEF785FE002106461C2201F024FC4C
:102420004146304600F094F8B8F1FF3F47F8046B9E
:1024300005D0012303FA04F26B6C13436B6401347F
:10244000102CE0D1284608B0BDE8F0810026EBE76B
:10245000B0AD000870B50446054654F8043B9B68CF
:102460000E469847002354F8040B48B146FA03F28D
:1024700012F0010F026812BF8168C16812040A607D
:102480000133102BEFD12B682846DB68BDE8704084
:10249000184710B50446FFF7DDFF204610BD03685E
:1024A0009B681847094B10B5002203600023C0E960
:1024B0000223002303614361044600F0CBF8044982
:1024C000A06100F088F9204610BD00BFC8AD00082B
:1024D0009F24000807B5009000F10801806900F012
:1024E000A7F903B05DF804FB00F10801806900F072
:1024F000C9B9000010B5034B03600446FFF7F4FFB1
:10250000204610BDC8AD000838B504460D46036826
:102510005AB18268136020460121FEF773FB2946F9
:102520002046BDE83840FEF769BBC2681B04F1E7EE
:1025300070B50E4604461546FEF740FB013606D040
:102540002A4620460021BDE87040FFF7DDBF70BD80
:102550000022FFF7EDBF000010B5044601300DD199
:1025600010BD9C4209D120468968FEF7EDFE204649
:102570000021BDE81040FEF77FBF0C31B1F90030FB
:102580005A1CEED10248BDE8104000F0BBB900BFB4
:1025900005AE0008884208B508D0431C06D00131BA
:1025A00006D0044800F0AEF94FF0FF31084608BDF0
:1025B0000146FBE7D4AD0008B1F900305A1C01D147
:1025C00018467047834201D1486870470C31F3E7E1
:1025D000421C10B5044607D0FFF7EEFF431C04462B
:1025E00002D1024800F08EF9204610BDE5AD00088A
:1025F00008B500F0EDF9094B1A884FF6FF739A42BF
:1026000004D100F011FA064800F07CF901210348DA
:1026100000F028FABDE8084000F006BA8813002050
:1026200016AE000808B500F0D3F9084B1B8823B993
:1026300000F0FAF9064800F065F90121034800F0BE
:102640001EFABDE8084000F0EFB900BF8813002073
:1026500043AE0008004870476CAE0008014800F027
:10266000C5B800BF6CAE000870B5D0E90823D0E94A
:102670000245064612196B41FFF72CFF736B2BB115
:1026800006F128001B68BDE87040184770BDD0B542
:10269000044616461F4600F09BF92046FFF724FF2C
:1026A000C4E90867A06900F008F9321847EB010394
:1026B0002046FFF70FFFBDE8D04000F0B5B97FB569
:1026C000044600F085F92046FFF70EFF636B13B157
:1026D00094F83830E3B904F128066D461022002141
:1026E000684601F0C1FAAE420BD03046FEF789F8D9
:1026F0003EB1039B1BB15B68694630469847039B1C
:1027000063632846FEF77DF800F08EF904B070BDD3
:10271000FFF788FFDFE70368D0B544685B68D4E95A
:10272000026798470022B04242EA00023B4602D2CA
:10273000003247F10103C4E90223D0BD2DE9F04185
:102740000646FFF7E8FF726837685368D2E902016E
:102750002BB3D3E90023994208BF904203D37B698E
:10276000BDE8F0411847141A63EB0105002D08BFBE
:10277000B4F1E04F13D2121A84183B69204641F19C
:10278000000598473046FFF7C6FF7368D3E9022378
:10279000AB4208BFA24205D333685B69E0E74FF064
:1027A000E042E9E7BDE8F081036810B504461B6824
:1027B0009847636800221A605A60002000210122B5
:1027C000C3E902011A742046FFF7A5FF2046BDE8C1
:1027D0001040FFF7B3BF38B543681B7C04460D4675
:1027E0000BB9FFF7E1FF63681D6038BD036870B582
:1027F000DB680446984763685B68A3B12046FFF72F
:102800008AFF65686E68D5E90201D6E9002399421E
:1028100008BF904207D3F3686B602B68002BEAD0A7
:10282000B0689847E7E72046BDE87040FFF786BFED
:102830002DE9F84305460C4616461F46DDF8208074
:1028400000F0C6F82846FFF766FF6968C4F80880FC
:10285000C4E900674B6800224BB9E36082B94C6061
:102860002846FFF76BFFBDE8F84300F0DDB8D3E979
:1028700000894F4508BF4645EFD31A46DB68EBE7B2
:10288000D460EDE738B505460C4600F0A1F86A685B
:102890005368A34209D1DB6853602846FFF74EFF17
:1028A000BDE8384000F0C0B81346002BF8D0DA6815
:1028B0009442F9D1E268DA60F2E743681B7C10B514
:1028C00004460BB9FFF770FF2046FFF724FF63684B
:1028D000D3E9020110BD08B5FFF7EFFF08BD000006
:1028E00070B504460D46164600F072F833462A4687
:1028F00021460348FEF796FABDE87040FEF73CBA61
:10290000A0AE00080FB413B5084B1A784AB90124D9
:1029100005A904981C700191FEF75AFA2046FEF7AB
:10292000CFFB02B0BDE8104004B07047A8130020F0
:1029300010B50023036043600A782F2A04460DD1A6
:102940004A785AB1481C2060194623681A782F2A01
:1029500006D10133236000F0A1F96060204610BD6C
:10296000002AF8D0013301312360EEE70068704798
:10297000406808B520B100F041F9431E5842584163
:1029800008BD10B50446FFF7F3FF10B1606800B151
:10299000043810BD406808B520B100F02FF9B0FA36
:1029A00080F0400908BD10B50446FFF7F3FF10B1F1
:1029B000606800B1043810BD4068003018BF0120C5
:1029C0007047EFF31080C04300F001007047000033
:1029D00038B5FFF7F6FF054672B60E4C236823B9EB
:1029E00080F001030C4ADBB213702368013304D179
:1029F00043220A490A48FFF773FF23682BB125B128
:102A0000472206490748FFF76BFF2368013323601D
:102A100038BD00BFAC130020A9130020D1AE0008C0
:102A20002AAF000850AF000810B50A4C236883B1E4
:102A3000FFF7C7FF20B1582207490848FFF750FFAA
:102A40002368013B236023681BB9054B1B7803B93E
:102A500062B610BDAC130020D1AE000850AF000824
:102A6000A913002038B505460C46FFF7B1FF2988A9
:102A70000C44A4B22C80FFF7D7FF204638BD70B5B8
:102A800005460E46FFF7A4FF2C88A41BA4B22C8099
:102A9000FFF7CAFF204670BD002070470020704736
:102AA000036801221B6900211847036800221B6983
:102AB00011461847F8B50368DB6C0E4604468F18BC
:102AC00098473546BD4207D0236815F8011B5B6C5B
:102AD000204698470130F5D1236820461B6D984762
:102AE000A81BF8BDF8B50368DB6C0E4604468F18CA
:102AF00098473546BD4208D0236820469B6C9847CE
:102B0000431C02D005F8010BF4E7236820461B6D37
:102B10009847A81BF8BD00207047704700207047F9
:102B20000020704710B5054B03604C33044640F855
:102B3000043F00F083F8204610BD00BF6CAF0008D2
:102B4000A0F10400EEE700BF10B50446FFF7EAFF6E
:102B50002046FEF7F5FA204610BDA0F10400F3E789
:102B60000F4B10B50022044640F8043B00F048F833
:102B70000C4B23605C336360002363610A49204689
:102B800000F0C5F8606118B1FEF79FFA204610BD4D
:102B900000F0C4F801680548FFF7B4FEF6E700BF8F
:102BA00068B00008ECAF0008C0AF0008C3AF000871
:102BB00010B5074B03F1080264330446026043601A
:102BC000406900F0F3F82046FFF7ACFF204610BD47
:102BD000E4AF000870B50446FFF73CFD0646FFF77A
:102BE0007AFE05463046FFF776FE401BA042F9D339
:102BF00070BD4FF47A735843FFF7ECBF007B70470A
:102C000038B504460A4B0360002343600D46A160BB
:102C100002730848FEF796FA45B1074B1A686260DE
:102C20001C600448FEF78EFA204638BD6560F8E760
:102C300058B00008B4130020B013002010B50F4B9B
:102C4000036004460E48FEF77DFAA3682BB10D4AD7
:102C500013689C420CD1636813600948FEF772FA4E
:102C6000237B13B9201FFEF783FA204610BD1346BD
:102C70005A689442FBD162685A60EEE758B0000887
:102C8000B4130020B013002010B50446FFF7D6FFA0
:102C90002046FEF755FA204610BD000070B50646E6
:102CA0000C480D46FEF74EFA0B4B1C685CB1A06851
:102CB00070B12A46314601F051FB48B9A06801F0D5
:102CC0001FFB854204D10348FEF73CFA204670BD45
:102CD0006468EBE7B4130020B0130020036870B5FC
:102CE0001B690122002104469847051E0DDB23685D
:102CF00002221B6900212046984723680646294680
:102D00001B690022204698473546284670BDFEF7CD
:102D1000DFB900000028B8BF40427047014B186877
:102D2000704700BFD805002000293DD070B505468A
:102D30000C4608B1836B7BB3B4F90C300BB900209F
:102D400070BD2846214600F039F8E36A064633B1E3
:102D50002846E16998470028B8BF4FF0FF36A3899D
:102D60001B061CD4216B41B104F14003994202D0EF
:102D7000284606F059FD00232363616C21B12846E3
:102D800006F052FD0023636400F0CAF90023A3811A
:102D900000F0C8F9304670BD00F0BCF9CCE7284619
:102DA000216906F041FDDDE700207047024B014636
:102DB0001868FFF7B9BF00BFD80500208B899AB209
:102DC0002DE9F0410D46110780463CD46A6843F472
:102DD0000063002AAB8165DDAE6A002E4BD09BB24A
:102DE00003F48052002192B2D8F80040C8F80010D5
:102DF000002A5BD02A6D5F0705D569682B6B521AD4
:102E00000BB1EB6BD21A4046E9690023B047461C70
:102E100056D0AB892A692A6023F400639BB2002252
:102E20006A60DA04AB813BD4296BC8F8004011B367
:102E300005F14003994202D0404606F0F5FC00201F
:102E40002863BDE8F0812E69AEB12C682E60910731
:102E50000CBF6B690023A41BAB600AE0324623461B
:102E60006F6AE9694046B8470028A4EB00040644AD
:102E700004DD002CF2DC0020BDE8F081AB8943F0DA
:102E80004003AB814FF0FF30BDE8F081AB892A6988
:102E9000696023F400639BB2AB81DB042A60C3D575
:102EA0002865C1E7EA6B002A96DCE4E70123404687
:102EB000E969B047431C024619D0AB89AE6A9AE76C
:102EC000D8F800100029E1D01D2907D0162905D017
:102ED000AB8943F04003AB81BDE8F081AB892A693F
:102EE0002A6023F400630022AB816A609CE7D8F873
:102EF0000030002BE1D01D2B07D0162B05D0AB895D
:102F000043F04003AB81BDE8F081C8F80040B2E770
:102F100010B5044682B008B1836B53B1B1F90C000F
:102F200008B902B010BD204602B0BDE81040FFF75E
:102F300045BF019100F0EEF80199EFE720B1054B94
:102F400001461868FFF7E4BF034B0449186800F016
:102F500071BC00BFD8050020B0B00008112F0008D8
:102F6000014900F067BC00BF292D00082DE9F04F92
:102F7000354B4568C3630024074600F53B720423C4
:102F80000321C0F8E412C0F8E822C0F8E04283B0A0
:102F90002C606C60AC606C66EC812C616C61AC6127
:102FA000AB81214605F15C00082200F05DFEBE68A1
:102FB000DFF898B0DFF898A0DFF89890DFF89880F5
:102FC000C5F820B001230922C5F824A0C5F828902F
:102FD000C5F82C80ED612146F381B28106F15C00D9
:102FE00034607460B460746634617461B4610822E2
:102FF000019300F039FEFD68F66112200222C6F846
:1030000020B0C6F824A0C6F82890C6F82C80214627
:10301000A881EA812C606C60AC606C662C616C618C
:10302000AC6105F15C00082200F01EFE019BED6121
:10303000C5F820B0C5F824A0C5F82890C5F82C80A4
:10304000BB6303B0BDE8F08F612F0008813F00082B
:10305000A53F0008DD3F0008FD3F000870B568236C
:103060004D1E03FB05F50E4605F1740106F0D8FB75
:10307000044640B100210C30666005F16802216011
:10308000A06000F0F1FD204670BD00BF204B70B580
:103090001D68AB6B064613B92846FFF767FF05F5B9
:1030A00038756B68AC68013B05D521E0013B5A1CC3
:1030B00004F168041CD0B4F90C20002AF6D10025D4
:1030C00001234FF6FF72E281A38165662560A5604A
:1030D000656025616561A561294604F15C000822EF
:1030E00000F0C2FD256365636564A564204670BD7C
:1030F0002B680BB11D46D4E730460421FFF7AEFF25
:10310000286008B10546CCE70C23336070BD00BFD2
:10311000B0B00008836B03B17047FFF727BF00BF53
:10312000704700BF704700BF38B5084B084DED1A17
:10313000AC1018BFED1805D0013C55F8043D984778
:10314000002CF9D1BDE8384007F068B9540A0020D6
:10315000580A0020F0B583B00F46114601AA064672
:1031600003F09EFC0546E8B13046FFF78FFF0446AA
:10317000C0B139463046019A4FF4DB7300F0C2FD0E
:1031800000281BDB114B124F1249134AE362EB0577
:10319000E081A581E46127626162A26205D42046D4
:1031A00003B0F0BD002003B0F0BD30462146002240
:1031B000022300F01BF8204603B0F0BD0025FFF706
:1031C000AFFFA581FFF7AEFF2846E9E7FD3F000806
:1031D000813F0008A53F0008DD3F0008024B0A467A
:1031E00001461868FFF7B6BFD805002000F000B808
:1031F0002DE9F04F0C4691B091461E46054610B1A0
:10320000836B002B73D0A38903F48473B3F5847F9D
:1032100075D0D4F82880B8F1000F00F03E81012E5F
:103220004AD0022E08D03EB116232B604FF0FF3754
:10323000384611B0BDE8F08F4FF0000A23695746B9
:10324000002B00F01581A28940F61A0391B20B40C1
:1032500043B949055ED4934B984500F0F68042F49B
:103260000062A28128462146FFF752FE0746002849
:10327000DCD14A4633462846E169C0470130D5D003
:10328000216B41B104F14003994202D0284606F077
:10329000CBFA00232363A3892269226023F402630B
:1032A0000021A381616004F15C00082200F0DCFCD5
:1032B000384611B0BDE8F08F28462146FFF728FEBA
:1032C000A38903F4805292B2002A00F0B480276DE3
:1032D0005E075CD4180740F1AC80226823690AB10C
:1032E000D21A1744B9444FF0010A0026A8E7FFF7A5
:1032F00011FFA38903F48473B3F5847F89D1284631
:103300002146FFF705FE84E7A3894FF4806213434B
:10331000A381E264002E43D1CB46BAF1000F4ED117
:10332000A389DA0440F1A980206D6368216BC71A74
:10333000002900F0AB80E26BBF1A1F442069A36B29
:103340001B1AFF1A1344BB453FDBFA1893453CD2C6
:10335000C7EB0B073844DB1B84E8090041B104F1DB
:103360004003994202D0284606F05EFA0023236308
:10337000A38923F02003A38104F15C00002108222B
:1033800000F072FC0027384611B0BDE8F08F62688B
:10339000236BBF1A002B4CD0E26B2369BF1AA1E745
:1033A0002846B4F90E1001AA00F07EF800287FF438
:1033B00059AF059B09EB030BBAF1000FB0D0216B9D
:1033C0006368002962D0E26BB7E7E76CE1697F428E
:1033D0000BEA07073A4628460023C04701303FF46E
:1033E00041AF2369216B23600023636041B104F185
:1033F0004003994202D0284606F016FA00232363C0
:10340000A389BBEB070B23F02003A381B4D028468C
:10341000214600F0A9FC00287FF424AF62689345A0
:103420003FF620AF2368CBEB02025B44626023606F
:10343000A2E7236956E733462846E169C047431CA3
:1034400007463FF4F3AEA38942E7B4F90E10002912
:10345000FFF605AF284601AA00F026F830B9029B16
:1034600003F47043B3F5004F3FF44EAFA289F6E684
:103470002846214600F030FAE5E601235246284668
:10348000E169C047431C7FF450AFEBE62268206936
:10349000121ABF1A1344002155E71D232B604FF069
:1034A000FF37C5E6DD3F000838B5084C0023054668
:1034B000084611462360FDF7A1FD431C00D038BD2E
:1034C0002368002BFBD02B6038BD00BFFC1600200A
:1034D0009368002B7AD02DE9F04FB1F80CE01EF084
:1034E000080F83B00C468146164626D00B6923B3DD
:1034F0000EF002081FFA88F0356870B34FF0000A2A
:10350000DFF8E0B2D046D8454346524628BF5B4676
:103510004846B8F1000F53D0E169676AB847002800
:1035200073DDB3681B1A8244C0EB0808B360002B3C
:10353000E9D1002003B0BDE8F08F4846214602F0F3
:103540005DFA002840F04581B4F80CE035680EF0D3
:1035500002081FFA88F00028D0D11EF0010B5DD1BF
:10356000D846B8F1000F25D01EF4007FA7682FD0F1
:10357000B845BA46C0F0A9801EF4906F40F0B680FE
:1035800020685246594600F00BFBA0682268C01B19
:1035900002EB0A03A06023604046B3681B1A834411
:1035A000C0EB0808B360002BC3D0B4F80CE0B8F14E
:1035B000000FD9D1D5F800B0D5F804800835D0E790
:1035C000D5F800A0D5F8048008359CE700207047A6
:1035D00020682369984203D86269904580F0B980D9
:1035E000474528BF47463A46594600F0D9FAA368EE
:1035F0002268DB1B3A44A3602260002B4AD1484674
:103600002146FFF785FC002844D0A38943F04003FE
:103610004FF0FF30A38103B0BDE8F08F80460090EB
:1036200083468246BAF1000F2CD0009B002B50D06D
:1036300020682169D4F808E06269D045434628BF74
:10364000534688421F4604D90EEB020C634500F333
:103650009280934220DB1346676AE16948465A46E6
:10366000B847071ED1DDB8EB070825D0B368DB1BD0
:10367000BB44C7EB0A0AB360002B3FF45AAFBAF160
:10368000000FD2D10023D5F800B0D5F804A00093E4
:103690000835C7E7384680E71A465946019300F0D7
:1036A0007FFAA2682168019BB8EB0708A2EB03022E
:1036B0000B44A2602360D9D148462146FFF728FC7D
:1036C0000028A2D1CDF80080D0E720684746C24646
:1036D00057E758460A21524600F07EF9002873D079
:1036E00001300123CBEB00080093A1E76769216952
:1036F000236807EB47075B1A07EBD777581C7F1047
:10370000404487423A463CBF07463A461EF4806F23
:10371000009346D01146484606F082F8009B824648
:10372000002859D01A462169009300F09FF9A28918
:10373000009B22F4906242F08002A2810AEB030017
:10374000FB1AC4F810A067612060A3604746C24618
:1037500017E76FF00043434528BF4346676A93FB72
:10376000F2F3484603FB02F3E1695A46B8470028E2
:103770003FF713AF49E762465946CDF804C000F061
:103780000FFA2368DDF804C06344236048462146ED
:10379000FFF7BEFBDDF804C000287FF436AF6746B4
:1037A00061E7484606F03EF8009B82460028C5D1F6
:1037B0004846216906F038F8A3890C2223F08003DB
:1037C0009BB2C9F8002021E701230AF10108009308
:1037D0002EE74FF0FF30ADE60C23C9F80030A38987
:1037E00014E700BF00FCFF7F2DE9F04110F53877AA
:1037F0001BD0884600267D68BC68013D0FD4A38994
:10380000012B05F1FF3506D9B4F90E3001332046FE
:1038100001D0C04706436B1C04F16804EFD13F6838
:10382000002FE8D13046BDE8F0813E463046BDE885
:10383000F08100BF2DE9F84310F538771FD0884696
:1038400006464FF000097D68BC68013D11D4A3898C
:10385000012B05F1FF3508D9B4F90E3001332146AB
:10386000304602D0C04749EA00096B1C04F16804E5
:10387000EDD13F68002FE6D14846BDE8F883B94650
:103880004846BDE8F88300BF70B50F4E0F4D761B5C
:10389000B61018BF002405D0013455F8043B9847F2
:1038A000A642F9D10A4E0B4D761B06F0B1FDB610BB
:1038B00018BF002406D0013455F8043B9847A642AF
:1038C000F9D170BD70BD00BF4C0A00204C0A002029
:1038D000540A00204C0A00208B899AB212F0020F81
:1038E0003CD1F0B50C46B1F90E10002991B0054657
:1038F00019DB01AAFFF7D8FD002812DB029B03F4B5
:103900007043B3F5004FA3F50057B7FA87F74FEAB6
:1039100057172AD0A38943F40063A3814FF480662C
:103920000BE0A3899AB212F0800F43F40063A381E5
:103930000CBF4FF48066402600272846314605F02C
:103940006FFFA38940B31A4AEA6343F08003A3815F
:103950002060206166619FB911B0F0BD01F14303A1
:1039600001220B600B614A617047124BA26A9A42B6
:10397000D0D1A3894FF480663343A381E664DCE7AA
:103980002846B4F90E1003F0C5F80028E4D0A38946
:1039900043F00103A381DFE79A05DDD404F143027C
:1039A00043F002030121A381226022616161D3E718
:1039B000612F0008DD3F0008024B0146186805F042
:1039C0002FBF00BFD8050020024B0146186805F044
:1039D0002BBF00BFD8050020830770B4C9B240D008
:1039E000541E002A3FD003788B4218BF431C06D1D7
:1039F0001DE0F4B102788A4204F1FF3417D013F0CD
:103A0000030F184603F10103F3D1032C14D884B13A
:103A100003788B420BD00519431C02E002788A42DE
:103A200005D0AB42184603F10103F7D1002070BC6A
:103A30007047204670BC704741EA0126024646EABC
:103A400006461046043203687340A3F1013525EAA7
:103A5000030313F0803FDAD1043C032C1046F0D866
:103A6000D5E71446D1E71046E1E700BF844641EAB6
:103A7000000313F003036DD1403A41D351F8043BE6
:103A800040F8043B51F8043B40F8043B51F8043B38
:103A900040F8043B51F8043B40F8043B51F8043B28
:103AA00040F8043B51F8043B40F8043B51F8043B18
:103AB00040F8043B51F8043B40F8043B51F8043B08
:103AC00040F8043B51F8043B40F8043B51F8043BF8
:103AD00040F8043B51F8043B40F8043B51F8043BE8
:103AE00040F8043B51F8043B40F8043B51F8043BD8
:103AF00040F8043B51F8043B40F8043B403ABDD247
:103B0000303211D351F8043B40F8043B51F8043BE8
:103B100040F8043B51F8043B40F8043B51F8043BA7
:103B200040F8043B103AEDD20C3205D351F8043B77
:103B300040F8043B043AF9D2043208D0D2071CBF43
:103B400011F8013B00F8013B01D30B88038060466C
:103B5000704700BF082A13D38B078DD010F00303E2
:103B60008AD0C3F10403D21ADB071CBF11F8013B52
:103B700000F8013B80D331F8023B20F8023B7BE7A1
:103B8000043AD9D3013A11F8013B00F8013BF9D2CC
:103B90000B7803704B7843708B7883706046704766
:103BA0008842F0B50DD98B1898420AD28118002AA4
:103BB00054D09A1A13F8014D01F8014D9342F9D1EE
:103BC000F0BD0F2A48D940EA01039B0747D100F115
:103BD000100401F11003154653F8106C44F8106CF2
:103BE00053F80C6C44F80C6C53F8086C44F8086CEF
:103BF000103D53F8046C44F8046C0F2D03F11003CE
:103C000004F11004E8D8A2F1100323F00F0302F02E
:103C10000F0E1033BEF1030F1944034421D91E1FA8
:103C20000D467446043C55F8047B46F8047F032C8B
:103C3000F8D8AEF1040424F00304043423442144EE
:103C400002F0030252B1013B0A4411F8014B03F8A0
:103C5000014F9142F9D1F0BD0346F3E7F0BD0346B1
:103C6000F1E77246EEE700BF70B4840746D0541EF9
:103C7000002A41D0CDB2034602E0621EE4B31446EE
:103C800003F8015B9A07F8D1032C2ED9CDB245EA8F
:103C900005250F2C45EA054519D903F110022646E2
:103CA000103E0F2E42F8105C42F80C5C42F8085CA3
:103CB00042F8045C02F11002F2D8A4F1100222F0E2
:103CC0000F0204F00F041032032C13440DD91E46CA
:103CD0002246043A032A46F8045BFAD8221F22F04F
:103CE00003020432134404F003042CB1C9B21C448F
:103CF00003F8011BA342FBD170BC70471446034676
:103D0000C2E700BF70B5084C0646002508461146BC
:103D10001A462560FDF746FA431C00D070BD2368A3
:103D2000002BFBD0336070BDFC1600200FB400B533
:103D3000074983B004AB086853F8042B81680193EA
:103D400000F05AFB03B05DF804EB04B0704700BF0D
:103D5000D8050020838903F00903092B01D0002036
:103D60007047FFF7EBB800BFF8B50C46054610B139
:103D7000836B002B43D0A3899AB2970407D4626E59
:103D800043F4005322F400526266A3819AB20021E8
:103D90009606616030D4500721D5216B61B104F1E2
:103DA0004003994202D0284605F03EFDE36B636074
:103DB00000202063002B3ED12369002B4BD0A78924
:103DC000BEB2B3071ED1226922602846E169256A86
:103DD0006369A8470028606009DD0020F8BDD106AE
:103DE0003ED512072AD443F00403A381E4E7A38954
:103DF00019D143F02003A3814FF0FF30F8BDFFF746
:103E000089F9B8E71A4B1B4918680123A38106F00A
:103E10000906FFF7E9FC092EA781D4D128462146DF
:103E2000FEF7CCFFCFE7002243F04003A38162609E
:103E30004FF0FF30F8BDA36B2360F8BD2846214644
:103E4000FFF766F80028D7D1A389A06023F0080304
:103E5000A0619BB2C7E728462146FFF73DFDAEE7CC
:103E600043F0400309222A604FF0FF30A381F8BDE0
:103E7000B0B00008553D000800290CBF0222002206
:103E80004FF4806300F000B82DE9F0413A4C266809
:103E90000D46044690461F4616B1B36B002B3CD02E
:103EA000B8F1020F2FD8002F2DDB21463046FFF747
:103EB0002FF8A18900236360A3610B0627D421F0AA
:103EC000830189B2B8F1020FA1812AD0002D36D02A
:103ED000B8F1010F11D089B201F00800274BF3634C
:103EE00080B225602561676178B111F0030F18BFBA
:103EF0000027A7600020BDE8F08141F001017B426E
:103F0000A181A361E7E74FF0FF30BDE8F0812169AF
:103F1000304605F089FCA189D1E73046FFF7FAF871
:103F2000BEE7002004F1430341F002010025012215
:103F3000A181A560236023616261BDE8F081002F4B
:103F400008BF4FF480673846FFF736FD054628B1B5
:103F5000A18941F0800189B2A181B9E74FF4806065
:103F6000FFF72AFD054618B9A1894FF0FF30D9E7C0
:103F70004FF48067ECE700BFD8050020612F0008F0
:103F800010B50C46B1F90E1003F0ECF8002803DB75
:103F9000236D0344236510BDA38923F48053A381BB
:103FA00010BD00BF2DE9F04116468A891D46D30594
:103FB0000C46074606D50022B1F90E10022302F086
:103FC000C9FDA289B4F90E1022F48052A2813846AC
:103FD00032462B46BDE8F04101F0FCBC10B50C4662
:103FE000B1F90E1002F0B6FDA389421C0EBF23F4F6
:103FF000805343F480532065A38110BDB1F90E10A6
:1040000001F05EBD000000000000000000000000A4
:1040100000000000000000000000000000000000A0
:10402000A2EB0300704700BF02780B78012A28BF7B
:104030009A42F5D16DE9044540EA0104CDE90267F1
:104040006FF0000C4FEA447212B380EA010414F0DE
:10405000070F6AD100F0070420F0070004F0030501
:1040600021F007014FEAC505F0E8042314F0040F1E
:10407000F1E804670CFA05F462EA040266EA040651
:104080000AD063EA0403624667EA0407664603E06F
:10409000F0E80423F1E8046782FA4CF582EA0604AA
:1040A000A4FA8CF46CBB83FA4CF583EA0705A5FAF5
:1040B0008CF595B950E9022351E9026782FA4CF573
:1040C00082EA0604A4FA8CF483FA4CF583EA070525
:1040D000A5FA8CF52543DBD09CB92DBAB5FA85F449
:1040E00024F0070427FA04F1DDE9026723FA04F358
:1040F00003F0FF0001F0FF01FDE80445A0EB010023
:10410000704724BAB4FA84F424F0070426FA04F1C0
:10411000DDE9026722FA04F202F0FF0001F0FF017C
:10412000FDE80445A0EB0100704714F0030F3CD1FB
:1041300010F0030428D150F8082B51F8083B82FAFC
:104140004CF582EA0305A5FA8CF55DB950F8042C0C
:1041500051F8043C82FA4CF582EA0305A5FA8CF585
:10416000002DE8D02DBAB5FA85F424F0070423FA1F
:1041700004F122FA04F202F0FF0001F0FF01FDE871
:104180000445A0EB010070474FEAC40420F003008F
:1041900050F8082B21F0030151F8083B0CFA04F405
:1041A00062EA040263EA0403C9E710F003041AD0C8
:1041B000A1EB040120F00300E40750F8042B06D023
:1041C0000FD28B785FFAA2F4E41A06D12BB1CB7828
:1041D0005FFAB2F4E41A00D11BB920465DF8104B27
:1041E000704701F1040150F8042BCC0721F00301C2
:1041F00051F8043B48D824D222F07F4482FA4CF58F
:1042000094EA1325A5FA8CF50AD165B951F8043B57
:1042100084EA0204B4EB036F0ED150F8042BEBE7F1
:104220004FEA132355E035F07F454DD10878FDE87E
:104230000445C0F1000070474FEA126203F0FF032B
:1042400047E002EA1C4482FA4CF594EA1345A5FAC9
:104250008CF50AD165B951F8043B84EA0204B4EB49
:10426000034F0CD150F8042BEBE74FEA134330E037
:1042700015EA1C4528D10B884FEA124229E04FEA83
:10428000124203EA1C4324E002F0FF0482FA4CF5D8
:1042900094EA1365A5FA8CF50AD165B951F8043B87
:1042A00084EA0204B4EB032F09D150F8042BEBE7A6
:1042B0004FEA13630DE015F0FF0F05D10B684FEACD
:1042C000122223F07F4304E04FF00000FDE8044594
:1042D000704712BA1BBA82FA4CF482EA0304A4FAB9
:1042E0008CF5B5FA85F402FA04F203FA04F34FEA06
:1042F0001260FDE80445A0EB13607047AFF3008047
:1043000020F0030110F00300C0F1000051F8043B5D
:1043100000F1040C4FEACC0C6FF000021CBF22FA33
:104320000CF213434FF0010C4CEA0C2C4CEA0C4CF1
:10433000A3EB0C0222EA030212EACC1204BF51F8EA
:10434000043B0430F4D0C2F1000102EA0102B2FAE7
:1043500082F2C2F11F0200EBD2007047002A3ED069
:1043600040EA010313F00303F0B425D1032A23D953
:1043700004680D68AC421FD1043A32D0A4F1013573
:1043800025EA040414F0803F2ED1071D0D1D0DE019
:1043900057F8043B0E68A3F10134B34224EA030446
:1043A0000AD1043A1DD014F0803F20D1032A2946B7
:1043B000384605F10405EBD803780C78A34202F1E6
:1043C000FF3209D16AB17BB110F8013F11F8014FFA
:1043D000A34202F1FF32F5D0181BF0BC7047104623
:1043E00070471046F0BC70471846F0BC704700207C
:1043F000F3E700BF000000002DE9F04FC1B01C46FC
:1044000089460892074602F0A1FB036815931846F7
:10441000FFF776FF0C9416901FB1BB6B002B00F0DA
:10442000F380B9F80C2093B29E040AD4D9F8641032
:1044300042F4005321F40051A9F80C30C9F864107B
:104440009BB21D0740F1AA80D9F81020002A00F085
:10445000A58003F01A030A2B00F0AC809FED6E7B61
:1044600000238DED127B11932593249314931793BE
:10447000099330AB23931C46B846089D2B78002B3C
:1044800000F0C680252B02D1C2E0252B03D015F801
:10449000013F002BF9D1089BEE1A7EB1249B259A8F
:1044A0000899216001333244072B666025922493DA
:1044B00000F393800834099B334409932B78002B35
:1044C00000F093800023691C4FF0FF3A6D788DF85F
:1044D0006F301A460A93069356464B1CA5F12001ED
:1044E000582900F2CD83DFE811F05C02CB03CB0347
:1044F0000203CB03CB03CB03CB03CB03CB030903D7
:10450000D202CB03F8015303CB03D602DD02DD0256
:10451000DD02DD02DD02DD02DD02DD02DD02CB03B4
:10452000CB03CB03CB03CB03CB03CB03CB03CB031B
:10453000CB0371029302CB039302CB03CB03CB03D8
:10454000CB03CB02CB03CB036E03CB03CB03CB0359
:10455000CB03CB03B503CB03CB038B03CB03CB0341
:10456000CB03CB03CB03CB03CB03CB03CB03CB03DB
:10457000A003170393029302930230031703CB03A4
:10458000CB033703CB034103FF01EC026302CB03F0
:104590001102CB039B00CB03CB03360238464946BE
:1045A00001F02CFAA0B9B9F80C3003F01A030A2B69
:1045B0007FF454AFB9F90E30002BFFF64FAF3846F9
:1045C0004946089A234601F02BF941B0BDE8F08F27
:1045D0004FF0FF3041B0BDE8F08F4046494623AA76
:1045E00004F0A6F840B930AC65E7259B23B14046FE
:1045F000494623AA04F09CF8B9F80C305A06E7D4CF
:10460000099841B0BDE8F08F3846FEF783FD08E712
:10461000089D53E7AFF30080000000000000000099
:104620000893069BB2469E0640F11E830C9F0737F7
:1046300027F0070303F10802D3E900670C92012376
:104640004FF0000C8DF86FC0CDF83CA0BAF1000F10
:1046500003DB069A22F08002069256EA070240F037
:104660001F83BAF1000F00F01C84012B00F020839F
:10467000022B00F0528430A9F20842EA4772F8088F
:1046800006F0070307461646303356EA070201F8DC
:10469000013DF1D1069A0E91D00700F1F98430ABBB
:1046A0005B1A0B930B9A92455346B8BF1346079378
:1046B00000231093BCF1000F02D0079B0133079336
:1046C000069B13F002030D9302D0079B023307935E
:1046D000069B13F0840640F0E0820A9B079AC2EB27
:1046E000030ABAF1000F40F3D882BAF1100F2599EE
:1046F000249AB34FC8BF4FF0100B07DC1EE0AAF19D
:10470000100ABAF1100F04F1080417DD013210315C
:10471000072A2591249284E88008F0DD4046494626
:1047200023AA04F005F800287FF466AFAAF1100A66
:10473000BAF1100F2599249A30ACE7DC01320AEB6C
:10474000010B072ACDF894B0249284E8800400F38A
:104750004A849DF86FC00834BCF1000F0FD0249B31
:1047600001330BF1010B0DF16F010122072BCDF885
:1047700094B0249384E8060000F3B18308340D9BC1
:1047800073B1249B01330BF1020B1CA90222072BEE
:10479000CDF894B0249384E8060000F3AC83083489
:1047A000802E00F0F0820F9B0B9AC2EB030ABAF145
:1047B000000F32DDBAF1100F249A824F22DD10264D
:1047C0005B4606E0AAF1100ABAF1100F04F10804E2
:1047D00017DD01321033072A259324922760666083
:1047E000F0DD4046494623AA03F0A2FF00287FF4EB
:1047F00003AFAAF1100ABAF1100F259B249A30AC2E
:10480000E7DC9B460132D344072ACDF894B02492CA
:1048100084E8800400F357830834069BDB0500F12D
:104820005B82249B0B990E9A226001338B44072BE9
:10483000CDF894B06160249300F31D830834069B87
:1048400059073AD50A9B079A9D1A002D35DD102D80
:10485000249B5B4F1EDD10265A4604E0103D102DB0
:1048600004F1080415DD01331032072B259224933F
:1048700027606660F2DD4046494623AA03F058FFF0
:1048800000287FF4B9AE103D102D259A249B30AC42
:10489000E9DC93460133AB44072BCDF894B0249365
:1048A0002760656009DD4046494623AA03F040FFC2
:1048B00000287FF4A1AEDDF894B0099B079A0A990D
:1048C0008A42ACBF9B185B180993BBF1000F40F004
:1048D000DE820023249330ACCFE5194606981D787C
:1048E00040F004000690F8E50893069B13F02003BF
:1048F000B24600F073810C9F073727F0070303F1DE
:104900000802D3E900670C92002399E60C9A0893F9
:1049100013680E934FF0000B8DF86FB0171D002B2E
:1049200000F06086002E0E98C0F21286594632467C
:10493000FFF752F8002800F091860E9BCDF83CB0AE
:10494000C31A0B930C9723EAE3730793CDF840B097
:104950009DF86FC0AEE608931B4B1493069B8DF831
:104960006F209906B24640F155810C9F073727F01A
:104970000703D3E9006703F108020C92069BDB07EB
:1049800040F1E48256EA070300F0E082069A8DF8CF
:104990007150302342F002028DF8703006920223EB
:1049A0004EE61D781946002A7FF497AD202294E543
:1049B000069941F0200106911D7819468DE500BF4A
:1049C00008B10008B4B00008E8B000080893069BDE
:1049D0008DF86F2043F010030693069B9806B246AD
:1049E00040F1A2800C9F073727F00707D7E9002383
:1049F00007F108010C9116461F46002A73F10003C7
:104A0000C0F21C849DF86FC0CDF83CA001231DE6C8
:104A10000893069B0C9F8DF86F201B07B246B34688
:104A200007F1070740F19B8427F0070393ED007B14
:104A30008DED127B03F108020C92DDE9120102F008
:104A4000A5FB0128DDE9120140F0068400220023C5
:104A500004F0C8FB002840F0EE859DF86FC0069E6C
:104A6000994A9A4B0321002026F08006472DD8BF93
:104A70001A4607910F9006960E920B91109019E628
:104A8000069941F0080106911D78194625E51D7823
:104A900019462B2221E5069941F0800106911D78E7
:104AA00019461AE5A5F13000002113F8015B01EB6E
:104AB000810100EB4101A5F130000928F5D90A91E7
:104AC0000CE50C9908933023069A8DF870300B464C
:104AD0000433782542F002020C937D4B1493B246C6
:104AE00006920E688DF8715000270223A8E50699FA
:104AF00041F0010106911D781946EEE40C9D2968EC
:104B00000A9108460028294601F10401C0F2EE840A
:104B10000C911D781946E0E40893069B8DF86F20F0
:104B20009806B2463FF55EAF069BD90600F19B8220
:104B3000069B5A0640F197820C99B1F90060043146
:104B4000F71732463B460C9157E7069941F0400172
:104B500006911D781946C0E41D7806996C2D00F069
:104B6000BE8441F0100106911946B6E40893069BF5
:104B70008DF86F209A0640F1FD830C9A099913680D
:104B8000CF170846043239460C92C3E9000174E499
:104B90001D782A2D03F1010100F02C86A5F13000CB
:104BA00009280B464FF000063FF698AC13F8015B5E
:104BB00006EB860600EB4606A5F130000928F5D97C
:104BC00046EAE6768AE40893069B43F010030693D0
:104BD000069B13F02003B2467FF48DAE069A12F0C6
:104BE000100240F03882069B13F0400300F033823D
:104BF0000C9913460A4604320E880C9200271FE5D2
:104C00000893344B1493069B8DF86F209906B24697
:104C10003FF5ABAE069BDA0640F1D1830C9A134602
:104C2000043316680C930027A8E60C9908930A68C9
:104C30008DF898200023012204319C4607920C91A4
:104C40008DF86F3026ABCDF83CC0CDF840C00B924C
:104C50000E9335E50893069B43F010030693069BDD
:104C6000B2469E063FF5E2AC069BD80640F199831A
:104C70000C9A134604321E680C9201230027DFE4CD
:104C800008938DF86F20002D3FF4AFAC0023012274
:104C90009C4607928DF89850D2E7DDF894B05BE51A
:104CA000012B7FF4E5AC002F08BF0A2E80F0FF81B6
:104CB0000DF5807B30360BF8416D30ABCBEB030349
:104CC0000B93CDF838B0EDE4C8B00008C4B00008CC
:104CD000E8B00008D4B00008652D40F38A80DDE913
:104CE00012010022002304F073FA002800F0318141
:104CF000249BAE4A226001330BF1010B0122072BEA
:104D0000CDF894B02493626000F3728308341D9B45
:104D1000119A934203DB069BDF077FF590AD249B3E
:104D20001699159A226001338B44072BCDF894B065
:104D30006160249300F3E1830834119B5D1E002D14
:104D40007FF77DAD102D249B994F40F3968110265F
:104D50005A4604E00834103D102D40F38D81013394
:104D60001032072B2592249327606660F2DD4046BF
:104D7000494623AA03F0DCFC00287FF43DAC259AC9
:104D8000249B30ACE7E70A9B079A9E1A002E7FF718
:104D90000AAD102E249A864F1FDD4FF0100A5B4695
:104DA00004E0103E102E04F1080415DD013210332A
:104DB000072A2593249284E88004F2DD4046494680
:104DC00023AA03F0B5FC00287FF416AC103E102E89
:104DD000259B249A30ACE9DC9B460132B344072A78
:104DE000CDF894B024922760666000F31A820834EC
:104DF000D9E4119B249D012B40F3D5810E9B2360A8
:104E000001350BF101060123072D259624956360DA
:104E100000F3E5810834169A159B2360013516448A
:104E2000072D25962495626000F3EF810834002356
:104E3000DDE91201002204F0CBF9119B002840F0BB
:104E4000E1800E9A013B013501321E44072D249565
:104E500025962260636000F3B6810834179A626079
:104E6000013506EB020B1FAB072DCDF894B024954E
:104E700023607FF7E3AC4046494623AA03F058FC81
:104E800000287FF4B9ABDDF894B030ACD7E44046ED
:104E9000494623AA03F04CFC00283FF41AADFFF763
:104EA000ABBB002B33D1069BDA0730D50DF5807BE9
:104EB00030230BF8413D30ABCBEB03030B93CDF824
:104EC00038B0FFF7EFBB4046494623AA03F030FC59
:104ED00000287FF491ABDDF894B030AC9DE44046FF
:104EE000494623AA03F024FC00287FF485ABDDF8B3
:104EF00094B030AC43E44046494623AA03F018FC82
:104F000000287FF479ABDDF894B030AC48E430ABE6
:104F1000CDF82CA00E93FFF7C5BB14980DF1C00B74
:104F2000330906F00F0143EA07733A091E46174694
:104F3000435C0BF8013D56EA0703F1D15A4630AB0A
:104F40009B1ACDF838B00B93FFF7ACBB0223FFF7E9
:104F500077BB1D9D002D40F35782119A10998A420C
:104F60001346A8BF0B461D460E99002D01EB020A01
:104F70000BDD249B21600133AB44072BCDF894B0AB
:104F80006560249300F30B830834109B002DA8BFA9
:104F90005B1B002B1D4640F3B080102D249B044F5B
:104FA00040F31A8210265A4609E000BF04B10008F7
:104FB000B4B000080834103D102D40F30C820133CA
:104FC0001032072B2592249327606660F2DD40465D
:104FD000494623AA03F0ACFB00287FF40DAB259AC9
:104FE000249B30ACE7E74046494623AA03F0A0FBE8
:104FF00000287FF401AB9DF86FC0DDF894B030ACB1
:10500000FFF7AABB03F1FF3ABAF1000F7FF726AF13
:10501000BAF1100F8F4FC8BF4FF0100B07DCEAE05A
:105020000834AAF1100ABAF1100F40F3E4800135F8
:105030001036072D2596249584E88008F0DD40463B
:10504000494623AA03F074FB00287FF4D5AA259EC5
:10505000249D30ACE5E70C990A4604320E680C92A8
:105060000027FFF7EDBA0C9A166813460433F717BA
:105070000C9332463B46C0E493460133AB44072BC6
:10508000CDF894B02493276065607FF7D7ABF2E644
:10509000302B00F03E820E9B013B1A4630A80E9347
:1050A000821A30230B9201F8013CFFF7FBBA0DF195
:1050B000C00BCDF81CC0304639460A22002304F04C
:1050C000E1F83032304639460BF8012D00230A2230
:1050D00004F0D8F806460F4656EA0703EBD1DDF890
:1050E0001CC02BE74046494623AA03F021FB0028B9
:1050F0007FF482AADDF894B030AC0E9A10991D9B13
:105100000A441646119A93423EDB069AD5073BD4D1
:10511000119AC6EB0A05D31A9D42A8BF1D46002D61
:105120002F460BDD249A26600132AB44072ACDF8C6
:1051300094B06560249200F368820834002FACBFFD
:10514000DD1B1D46002D7FF77AAB102D249B414FB0
:1051500093DD10265A4603E00834103D102D8BDDF8
:1051600001331032072B2592249327606660F3DD0C
:105170004046494623AA03F0DBFA00287FF43CAA04
:10518000259A249B30ACE8E7249A1698159921605B
:1051900001328344072ACDF894B06060249200F372
:1051A0000A820834B4E7069BD8073FF527AE0E9B6A
:1051B000236001350BF101060123072D2596249567
:1051C00063607FF74AAE4046494623AA03F0B0FA2F
:1051D00000287FF411AA259E249D30AC3EE640466F
:1051E000494623AA03F0A4FA00287FF405AA259EC5
:1051F000249D30AC0FE601355644072D25962495A5
:1052000084E880047FF729AEDDE74046494623AABB
:1052100003F08EFA00287FF4EFA9259E249D30AC80
:1052200005E64046494623AA03F082FA00287FF4A7
:10523000E3A9DDF894B030ACFFF7B5BA4FF02D0C10
:10524000764267EB47078DF86FC0CDF83CA001238D
:10525000FFF7FCB9B4B0000801F098FF002800F097
:10526000188125F02003BAF1FF3F079300F0648214
:10527000472B05D1BAF1000F14BFD3464FF0010BF5
:10528000139B069A002B42F480720D92C0F2648246
:105290009DED127B8DED187B4FF0000A662D00F01E
:1052A0006081462D00F05D81079B452B0CBF0BF103
:1052B00001075F4602201DA91EAA21AB8DE88100CF
:1052C0000392049302914046DDE9182300F0A0FC0C
:1052D000672D0E9002D0472D40F05381069BDB07CF
:1052E00040F143820E9BDE19DDE918010022002304
:1052F00003F06EFF002840F0AF81219B9E4206D94B
:1053000030215A1C21921970219B9E42F9D80E9A85
:105310009B1A1193079B472B1D9B00F08581652DE0
:1053200040F3A881662D109300F02182119B109A02
:10533000934200F30482069BD90700F13B8222EAE4
:10534000E2730B92BAF1000F40F07B8107930D9B43
:105350000693CDF83CA09DF86FC0FFF7ABB927F0DE
:10536000070797ED007B07F108038DED127B0C9387
:10537000FFF763BB069BDB060BD4069B5F0608D5D5
:105380000C9A136804320C92BDF824201A80FFF79F
:1053900074B80C9A136804320C92099A1A60FFF7D9
:1053A0006CB8069B0C9A13F0400F13463FF462ACA6
:1053B00016880432002701230C92FFF741B9069B9F
:1053C0000C9A13F0400F134676D0043316880C93D2
:1053D0000027FFF7D3BA93460133AB44072BCDF830
:1053E00094B02493276065603FF77CAE083484E670
:1053F0004046494623AA03F09BF900287FF4FCA805
:10540000DDF894B030AC82E4249BB14A22600133D1
:105410000BF1010B0122072BCDF894B024936260AD
:1054200050DC08342DB9119B1BB9069BDE077FF5B4
:1054300006AA249B1699159A226001330BEB0102F0
:10544000072B25926160249300F3698108346D4233
:10545000002D6FDD102D9F4FC8BF102605DCB7E073
:105460000834103D102D40F3B38001331032072B68
:105470002592249327606660F2DD4046494623AAC0
:1054800003F056F900287FF4B7A8259A249B30AC86
:10549000E7E7069E904A914B9DF86FC00F9003215D
:1054A00026F08006472DD8BF1A4607910696109021
:1054B0000E920B91FFF7FEB8043316680C93002789
:1054C000FFF75CBA4046494623AA03F031F90028A9
:1054D0007FF492A81D9DDDF894B030ACA2E741F0B6
:1054E000200106915D78591CFEF7F7BF0A980C91D0
:1054F00040420A901946FFF7F1B94046494623AAAF
:1055000003F016F900287FF477A8DDF894B030ACEA
:1055100013E40E9A30AB9B1A0B93FFF7C3B84046C7
:10552000494623AA03F004F900287FF465A8259AC8
:10553000249B30AC11986060013302EB000B072B09
:105540000E9ACDF894B0249322607FF777A992E465
:10555000CDF83CB0FEF7D4FE0C970B900346FFF756
:10556000F2B903201DA91EAA21AB8DE80108039200
:10557000049302914046DDE9182300F049FB5F46A1
:105580000E900E9BDE19079B462B7FF4ADAE0E9B53
:105590001B78302B00F000811D9F3E44A4E640465E
:1055A000494623AA03F0C4F800287FF425A8DDF8B3
:1055B00094B030ACE9E44046494623AA03F0B8F879
:1055C00000287FF419A81D9BDDF894B030AC9FE54E
:1055D00001332A44072B25922493276065609EDCC3
:1055E0000834A7E7062E334628BF06230B9323EA89
:1055F000E373DDF838C00793394B0C97CDF83CC006
:10560000CDF840C00E93FFF755B84046494623AA4F
:1056100003F08EF800287EF4EFAF1D9B119ADDF8A1
:1056200094B0D31A30AC89E5DF1C22DB9B4520DB2C
:10563000109367257AE64FF02D0C8DF86FC0FFF7B9
:105640000EBA07930D9B06934FF02D0C00238DF897
:105650006FC00F93FFF731B8334658E626EAE6737A
:105660000F900C9710909DF86FC007930B96FFF763
:1056700021B8023D013B002B1D93BABF5B422D2296
:105680002B22092B8DF87C508DF87D2040F39880DB
:105690000DF18B063046134A82FB0321DA17C2EB69
:1056A000A10202EB8201A3EB410303F13001092ABD
:1056B000134600F8011DEEDC02463033D9B202F881
:1056C000011D964240F2A9800DF17E0203460DE0D5
:1056D00004B10008B4B00008D0B00008CCB0000895
:1056E000FCB000086766666613F8011B02F8011B30
:1056F000B342F9D123AB1B1A0DF17E0213441FAA4A
:105700009B1A119A1793012A13440B9369DD0B9B83
:10571000002201330B93109223EAE37312E6404612
:10572000494623AA03F004F800287EF465AF1D9DC6
:10573000259A249B30AC8AE64FF0060BA0E5109B1F
:10574000002BD8BFC3F10206119BC8BF0126F31876
:105750000B9323EAE373F5E5DDE9120101F1004360
:10576000189019934FF02D0A98E5219BCFE5002B57
:105770002EDDBBF1000F07D1069BDE0704D4109A83
:105780000B9222EAE273DDE5109B0BF10106334434
:105790000B9323EAE373D5E5DDE91801002200232A
:1057A00003F016FD00287FF4F7AEC7F101071D973F
:1057B0003E4499E5109B01330B9323EAE373C1E563
:1057C000303330228DF87F308DF87E2020AB96E785
:1057D000BBF1000F1BD1069BD80718D401230B93F4
:1057E000B0E5069B13F0010391D110930B9B23EAC4
:1057F000E373A7E50C9D2E6828460430002E5D78E3
:105800000C90BEF66AAE4FF0FF36FEF766BE0BF1A7
:1058100002030B9323EAE37394E50DF17E036EE735
:105820002DE9F0420C46ADF58D6DB1F80CE0E7695D
:10583000496EB4F80E9019911AAD4FF480662EF0AF
:10584000020E4FF0000C07976946676A00950495B1
:1058500002960596ADF80CE0ADF80E900997CDF8DC
:1058600018C00646FEF7C8FD051E07DB3046694630
:10587000FDF74EFB002818BF4FF0FF35BDF80C3088
:105880005B0603D5A38943F04003A38128460DF5A9
:105890008D6DBDE8F08200BF70B5002A9AB0054654
:1058A0002FDB14461A464FF4027300910491ADF8B1
:1058B0000C3011D0013C4FF6FF7669461E9B0294D6
:1058C0000594ADF80E6001F08FFC421C16DB009BC6
:1058D00000221A701AB070BD1E9B02944FF6FF761C
:1058E00069460594ADF80E6001F07EFC431C01DBB7
:1058F0001AB070BD8B232B601AB070BD8B232B6048
:10590000E5E78B2303604FF0FF30F1E730B583B05C
:10591000054C009324680D46134601462A4620464E
:10592000FFF7BAFF03B030BDD805002070B50D46B3
:105930001446064610B1836B002B48D0A289A36998
:10594000A36091B2080738D52369002B35D08904AC
:10595000EDB215D522686169D31A8B421CDA013386
:10596000A168501C0139A1602060157062699A42DB
:105970001AD0A389DB0701D50A2D15D0284670BDA2
:10598000616E42F4005221F40051A28122686166E6
:105990006169D31A8B42E2DB30462146FDF7B8FA43
:1059A00040B922680123DBE730462146FDF7B0FA13
:1059B0000028E3D04FF0FF3070BD3046214600F0A4
:1059C0001DF80028F6D1A289236991B2BFE7FDF73F
:1059D000A1FBB3E770B5084C064600250846114602
:1059E0001A462560FBF76CFA431C00D070BD236893
:1059F000002BFBD0336070BDFC16002038B52F4B58
:105A00001B6805460C4613B19A6B002A36D0A28952
:105A100093B218070CD52069A8B113F001021ED06B
:105A2000636900225B42A361A260F0B1002038BD2F
:105A3000D9063BD5580725D4206942F00803A38135
:105A40009BB20028E9D103F42072B2F5007FE4D0C4
:105A500028462146FDF740FFA3892069DDE7990725
:105A600058BF6269A2600028E0D1A3891A06DED57A
:105A700043F04003A3814FF0FF3038BD1846FDF7D7
:105A800049FBC4E7216B49B104F14003994203D0BB
:105A9000284603F0C9FEA2890023236322F02402D2
:105AA00000232069636092B22060C6E742F04002A2
:105AB00009232B604FF0FF30A28138BDD8050020AC
:105AC00038B5074C0023054608462360FBF7D8F994
:105AD000431C00D038BD2368002BFBD02B6038BDA1
