:020000040800F2
:1000000000000220C90A0008FD0A0008FD0A0008D5
:10001000FD0A0008FD0A0008FD0A000800000000B3
:10002000000000000000000000000000FD0A0008C1
:10003000FD0A000800000000FD0A0008FD0A000893
:10004000FD0A0008FD0A0008FD0A0008FD0A000874
:10005000FD0A0008FD0A0008FD0A0008FD0A000864
:10006000FD0A0008FD0A0008FD0A0008FD0A000854
:10007000FD0A0008FD0A0008FD0A0008FD0A000844
:10008000FD0A0008FD0A0008FD0A00080000000043
:10009000000000000000000000000000FD0A000851
:1000A000FD0A0008FD0A0008FD0A0008FD0A000814
:1000B000FD0A0008FD0A0008FD0A0008FD0A000804
:1000C000FD0A0008FD0A0008FD0A0008FD0A0008F4
:1000D000FD0A0008FD0A0008FD0A000800000000F3
:1000E000FD0A0008FD0A0008FD0A000800000000E3
:1000F000000000000000000000000000FD0A0008F1
:1001000000000000FD0A0008FD0A0008FD0A0008C2
:1001100000000000000000000000000000000000DF
:10012000FD0A0008FD0A0008FD0A0008FD0A000893
:10013000FD0A0008000000000000000000000000B0
:10014000000000000000000000000000FD0A0008A0
:10015000FD0A0008FD0A0008FD0A0008FD0A000863
:10016000FD0A0008FD0A0008000000000000000071
:10017000000000000000000000000000000000007F
:1001800000000000FD0A0008000000000000000060
:10019000FD0A0008FD0A0008044B05481B1A062B3F
:1001A00002D9044B03B11847704700BF830A0020EF
:1001B000800A00200000000005490648091A89103D
:1001C00001EBD171491002D0034B03B118477047BE
:1001D000800A0020800A00200000000010B5064CB4
:1001E000237843B9FFF7D8FF044B13B10448AFF3AA
:1001F00000800123237010BD800A00200000000051
:1002000038D6000808B5084B1BB108490848AFF3B9
:1002100000800848036813B9BDE80840CCE7064BE6
:10022000002BF9D09847F7E700000000840A00206F
:1002300038D600087C0A002000000000134B002B79
:1002400008BF114B9D46A3F5803A00218B460F460F
:100250001148124A121A03F069FD0D4B002B00D011
:1002600098470C4B002B00D0984700200021040039
:100270000D000B4800F04FFF03F05EFB200029004B
:1002800001F066F800F044FF0000080000000220C2
:100290000000000041130008800A00202017002001
:1002A000B531000803681B69184703689B69184744
:1002B00003689B6A18474FF0FF3070471120704762
:1002C00070477047704770474FF0FF30704737B541
:1002D000013B13440468BDF8185001951BB200930C
:1002E000A46E0B46A04703B030BD2DE9F347BDF91E
:1002F0002880BDF82C90054617460C4601EB030AF2
:1003000054450BDA2B68CDF80090DE6E214643464B
:100310003A4628460134B04724B2F1E702B0BDE8BE
:10032000F0872DE9F3470768BDF82C60BDF928A0D8
:1003300000960446FF6D91460D469846B8472368DF
:1003400000960AF1FF324A44DF6D294643462046B3
:1003500012B2B84723680096DF6E4A4653462946D4
:100360002046B84723680A9608F1FF312944DD6E1C
:100370004A46534609B22046AC4602B0BDE8F047B3
:10038000604737B5BDF8185004688DE82400013B7C
:100390000B44A46E1BB2A04703B030BD13B5B0F937
:1003A0001E200468019100920022B0F91C30246FD5
:1003B0001146A04702B010BD2DE9F04F85B01E4692
:1003C000BDF938B0BDF83C3001938046C2EB0B005C
:1003D0000C46154602F0C6FC8146301B02F0C2FCFA
:1003E0008145824605DD33465E469B4623462C46C4
:1003F0001D46B44205DD2B465D469B4623463446EA
:100400001E46331B9BB2C5EB0B00009302F0AAFC07
:100410000223BDF9007097FBF3F75D45B4BF0123DC
:100420004FF0FF3303900293A6421BDBD8F8003055
:10043000D145D3F854B0019BC7BF224629462A466E
:1004400021464046D847039BFF1ABBB21FB2002F7C
:1004500005DA029A1544009AD7182DB23FB201343A
:1004600024B2E1E705B0BDE8F08F00002DE9F04FC0
:100470008FB005460C93BDF860300693BDF864302C
:100480000793B0F91C3005918B429DF8688040F3CA
:100490008280B0F91E3093427DDD052313FB0811E5
:1004A000002978DD02EBC801002974DD0B9396B2B8
:1004B0000623089306F108039BB200240D93052C34
:1004C0001CBFBDF83020BDF82C3004961CBF13FBB8
:1004D0000243324A039618BF12F803901FFA88F3BA
:1004E0000293029ABDF8143004FB023213FA84F32B
:1004F00012B21BB208BF4FF00009099237460FFA3B
:1005000088FA0A9319F0010F11D0B8F1010F2B6886
:1005100003D1D3F854B0069B14E0069A0192CDF8AB
:1005200000A0D3F870B0BDF90C20534618E0069B2C
:10053000079A934217D0B8F1010F2B6807D1D3F86F
:1005400054B013463AB20A992846D8470BE0079AA6
:100550000192CDF800A0BDF91020D3F870B0534639
:1005600009992846D847039B029A13449BB20393E8
:10057000049B13449BB2013704930D9BBFB29F426F
:100580004FEA5909BED1089B013B013413F0FF0328
:1005900064B2089393D10FB0BDE8F08F2CC8000867
:1005A00030B50A2985B004460B4605D190F82820BD
:1005B000438C03EBC20326E00D2925D090F8285088
:1005C000B0F92220B0F920100295C58C0195858CD8
:1005D0000095FFF74BFF94F82820238C91B201EB94
:1005E000410003EB400394F82A001BB2238468B156
:1005F000B4F91C006FF0050505FB0202934205DD0E
:10060000638C03EBC103638400232384012005B0C2
:1006100030BDC9B2FFF7C4BF0368184708B10B6803
:100620000360704770470000F8B52A4C2A4A2378C7
:100630002A4E4FF4C07505FB032505F5C07715F864
:10064000011B274801F04DFF0021264801F049FF1A
:100650003368F2681B041360B36832681A60BD42E5
:10066000EDD1214A936811681960237811461F4A19
:1006700013F0010F07BFD06812689068126808BFB6
:10068000120402601A4A13F0020F07BFD068126802
:100690009068126808BF12040260164A90681568D4
:1006A0000560D0681268120402600A68C8680133E5
:1006B000DBB212040260032B0F4A88BF00232370B1
:1006C00053681968136819420EBF9268D2681B04F8
:1006D0001360F8BD8C120020D40A0020881100207D
:1006E0003C110020F0100020B80A0020A4110020C6
:1006F000D4100020701200209C0A002038B51C2263
:1007000004460D46002103F011FB2046294601F066
:1007100047FF204638BD000010B5044601F0EAFE50
:100720002046064B40F8283B1022002103F0FEFA39
:10073000012384F83830204610BD00BF10D20008D5
:1007400010B5044B03607C330446436002F058FA52
:10075000204610BDA8C70008A0F10400F0E700BFC4
:1007600010B5054B03F10802843304460260436070
:10077000FFF7E6FF204610BD34CD0008A0F10400CD
:10078000EEE700BF10B50446FFF7EAFF204600F091
:10079000FFFC204610BDA0F10400F3E710B50446AD
:1007A000FFF7CEFF204600F0F3FC204610BDA0F17D
:1007B0000400F3E710B5074900230022CC18A05429
:1007C0000132B2F5C07FFAD103F5C073B3F5C06F43
:1007D000F3D110BDD40A002030B5C1F3C203144CCC
:1007E000E55C00F0F80301F0030403EB430301F0C0
:1007F00004010B4400F0070000EB430398B20D49DD
:100800004FF4C07303FB04030B4403F11001EC43EA
:10081000403311F8100C12F0010F14BF2843204090
:1008200001F8100C103199424FEA5202F1D130BD5B
:100830009C010020D40A002010B4D4B2C8B2DAB2AD
:1008400021465DF8044BFFF7C7BFC36810B50446E7
:100850000BB19B689847204610BD000038B505468F
:10086000064B45F8283B044601F051FF2846FFF7A8
:10087000ECFF204601F066FE204638BD10D200088D
:1008800010B50446FFF7EAFF204600F081FC204641
:1008900010BD38B5CB6804460D460BB15B68984770
:1008A000EB68E360204638BD70B52C4888B003F093
:1008B000B1FA10220021684603F038FA284B009361
:1008C0006946284B039304A8FFF7E3FF02F0A8F85A
:1008D000254B5A6B1AB993F83830002B3BD123487B
:1008E000FFF7B3FF04A92148FFF7D3FF4FF41662C7
:1008F00000231D4801F0F3FE02F0BEF804A8FFF744
:10090000A4FF6846FFF7A1FF00242546002600202B
:10091000FFF750FF234631462A46154803F07AFA7E
:100920002246F0B22946FFF757FF052002F089F969
:10093000FF2C08BF002401360134402EE4B2E5D07C
:100940003F2EE4D10135EDB20F2DE0D10020FFF7AD
:1009500031FF0025DBE701F073FEC0E7C0CD0008E2
:100960002906000828CD0008F011002018120020E8
:10097000C8CD0008F0B5444C444D454F8FB0002120
:10098000204602F015F9402323836383A383E38386
:10099000002323846384E38484F829303D4B3E495B
:1009A000012603F10802A684843384F8286084F8C1
:1009B0002A60226020462A46636000F0A7FB0521DA
:1009C0003648FFF79BFE21213548FFF797FE314659
:1009D0003448354EFFF792FE10213448FFF78EFE63
:1009E00004213348FFF78AFE202132484FF0FF34BC
:1009F000FFF784FE14230C940B940A940994089432
:100A0000079406940594049403940294019400932B
:100A10000A2215231321304601F0DAFC2A46394612
:100A20003046254E00F072FB07230C940B940A9479
:100A300009940894079406940594049403940294EA
:100A4000019400931D4C162327220921304601F002
:100A5000BFFC2A463946304600F058FB184E204667
:100A6000FFF75AFE2046174C2A46314600F04EFB4F
:100A70002046FFF751FE2A46314620460FB0BDE81A
:100A8000F04000F043BB00BFC011002098010020DF
:100A90009523000834CD0008610700089C0A002057
:100AA000A4110020D41000203C1100208811002047
:100AB00070120020B80A0020F0100020F011002071
:100AC0005D08000830120020DFF820D0002103E08C
:100AD000074B5B58435004310648074B42189A4273
:100AE000F6D301F03DFBFFF7A9FB704700000220A1
:100AF00044D6000898010020800A0020FEE700008C
:100B00007FB50023072855D8DFE800F00413202D17
:100B10003A54544700932A4B2A481A6B42F0010278
:100B20001A631B6B03F001030093009B07B05DF891
:100B300004FB0193224B24481A6B42F002021A6311
:100B40001B6B03F002030193019BEFE702931C4B25
:100B50001E481A6B42F004021A631B6B03F0040375
:100B60000293029BE2E70393154B19481A6B42F07C
:100B700008021A631B6B03F008030393039BD5E77A
:100B800004930F4B13481A6B42F010021A631B6B4D
:100B900003F010030493049BC8E70593084B0E4829
:100BA0001A6B42F080021A631B6B03F080030593FB
:100BB000059BBBE7094801F0CDFE0020B6E700BF6A
:100BC00000380240000002400004024000080240D9
:100BD000000C024000100240001C024088CE0008B9
:100BE000431C10B5044604D174220649064801F09E
:100BF0009FFE2046002100F0CFFB04F00F040120EF
:100C0000A04010BDA9CE000807CF000870B504466B
:100C10004B1C0E46218216D0C1F30310FFF770FF64
:100C200005463046FFF7DCFF238A074A656103F07B
:100C30000F03206052F82330A36105F1100318352B
:100C40006360A560E56070BDC8CF0008B0F9100012
:100C500000F03ABC10B58369446971B9216893FA10
:100C6000A3F2B2FA82F20320520000FA02F221EA61
:100C7000020293FAA3F3226010BD226893FAA3F153
:100C8000B1FA81F193FAA3F30320490000FA01F1CC
:100C9000B3FA83F322EA01025B00012101FA03F3B4
:100CA0001343236010BD000070B5134C23681A690C
:100CB000950707D5DA68900704D56FF002021A612C
:100CC00001F0F4FC23681A69510713D5DA6852075A
:100CD00010D56FF00402094E1A615D6A3368EB1A91
:100CE000B3F57A7F06D300F071FD236805F57A72BB
:100CF0009A63356070BD00BFE0160020901200209E
:100D000030B589B001A903A801F022F800F0F0FF86
:100D100000230293254B01901A6C254C42F00802E7
:100D20001A641A6C02F008020292029A1A6A42F0DD
:100D300008021A621A6A22F008021A62069AA3F5D9
:100D40000B3323604FF0FF33E3601A4B002A2AD1A4
:100D5000B0FBF3F001380025606015482561A560FF
:100D6000656101F061F8144B144A9B681048C3F8A0
:100D70000821134B4FF480225A60294601F090F865
:100D800004210B4801F08CF823680E4A596A11605F
:100D9000126802F57A729A63DA68284642F0040211
:100DA000DA6009B030BD4000D2E700BF0038024031
:100DB000E016002040420F0000ED00E0A90C000802
:100DC00000E100E09012002010B588B001F028FE8C
:100DD000052101A801F0E4FB0424039B019A1A6099
:100DE000962001F02EFF019B049A1B0413609620AD
:100DF00001F027FF013CF0D10424039B019A1A6003
:100E00004FF4C87001F01DFF019B049A1B0413608E
:100E10004FF4C87001F015FF013CEED1DCE7000093
:100E200070B50D46A0B0044601F0FAFD2B462246EF
:100E30008021684604F0DCFF051E03DC01F01CFE87
:100E400020B070BD094B1B6823B90322022108485A
:100E500000F0D0FB064E00241DF80410304601348B
:100E600000F088FCA542F7D1E8E700BFA4130020FA
:100E7000901600200FB407B504A951F8040B019196
:100E8000FFF7CEFF03B05DF804EB04B0704708B580
:100E900001F012FA00F082FC01F004FABDE808400B
:100EA00001F00ABA08B5084B1B685BB90221074874
:100EB000032200F09FFB4FF416510448BDE80840A0
:100EC00000F042BC08BD00BFA41300209016002013
:100ED000022810B501DC002010BDC31E0B4A52F8D9
:100EE0002300002142F8231030B901F03FFF09230D
:100EF00003604FF0FF3010BD03685B699847041E24
:100F0000E9DA01F033FF64420460F2E79412002052
:100F10000228F8B50D4614460EDC134B1B680BB9BE
:100F2000FFF7C0FF114E2F19BD4210D015F8011B5D
:100F3000304600F01FFCF7E703380D4B53F8200054
:100F400038B901F013FF092303604FF0FF34204646
:100F5000F8BD0368DB689847041EF8DA01F006FF65
:100F600063420360F3E700BFA41300209016002043
:100F700094120020022810B50C460BDC104B1B68A5
:100F80000BB9FFF78FFF0F4800F0E2FB2070012440
:100F9000204610BD03380C4B53F8200030B901F047
:100FA000E5FE092303604FF0FF34F1E703689B6817
:100FB0009847041EECDA01F0D9FE63420360E7E7CC
:100FC000A41300209016002094120020022810B5CF
:100FD00016DD03380B4B53F820402CB901F0C6FE48
:100FE00009230360204610BD23682046DB6998472B
:100FF000041EF7DA01F0BAFE644204600024F1E74F
:101000000124EFE794120020022810B506DC01F05D
:10101000ADFE1D2303604FF0FF3010BD03380A4BB7
:1010200053F8200018B901F0A1FE0923F2E7036884
:101030001B699847041E04DA01F098FE64420460BC
:10104000E9E7204610BD00BF94120020022838B501
:101050000D4604DC4FF400534B60002038BD0338CC
:101060000D4B53F8204034B901F080FE0923036092
:101070004FF0FF3038BD23682046DB6998470028D1
:1010800014BF4FF400534FF400436B6023682046B5
:101090009B6A98472861E0E79412002008B5012078
:1010A00000F036F80C4A136810B51844EFF30881C5
:1010B000884205D3094B0C221A604FF0FF3010BD57
:1010C00007490C6824B10749096821448842F1D2D4
:1010D0001060184610BD00BFA40100201C1700209E
:1010E0009C130020A0130020074C08B52368054678
:1010F000986801F045FF2368D86801F041FF0DB101
:10110000FFF762FEFEE700BFB0010020012070473C
:1011100008B5FFF7E9FF01207047002102F022BF68
:101120001FB504220C463A230DEB020101900DF18C
:1011300009008DF8083002F0FBFC214602A802F0FD
:1011400093F8044638B101980368DB69984710B1F9
:101150002046FFF7E2FF204604B010BD70477047FD
:1011600008B5FFF7FBFF08BD08B5FFF7F8FF08BD9E
:1011700010B502F07DFC044610B9024801F0EAFB0C
:10118000204610BD91CF000808B102F079BC70472D
:10119000FFF7FABF034610B553F8042B044602B913
:1011A000036022689A4204D05D220349034801F09B
:1011B000BFFB206810BD00BF1ACF00087DCF00081C
:1011C00010B504460948FFF7E5FF0023084A194611
:1011D00052F82300A04208BF42F823100133402BED
:1011E000F6D10248FFF7D6FF10BD00BF94130020D0
:1011F000941200202DE9FF4789464049064602F037
:10120000B3FF044628B9FFF74DFE204604B0BDE801
:10121000F0873B49304602F0A7FF18B9FFF742FEBE
:101220000124F2E73749304602F09EFF18B9FFF774
:1012300039FE0224E9E73448344DFFF7ABFF0024C0
:10124000A84655F82470002F40D00134402CF8D126
:1012500001F08CFD182303602B48FFF79BFF0EE085
:10126000314602A801F08CFB02A801F0CDFB064636
:1012700040B901F07BFD1323036045F824604FF073
:10128000FF34C2E702A801F0ADFB074602A81FB178
:1012900001F0B1FB01902BE001F09BFB064600281A
:1012A000E7D0036802A8D3F808A001F087FB29F46F
:1012B0008033024601A93046D0470646C0B101F04E
:1012C00055FD7642066045F82470D8E74FF0FF33AD
:1012D0000D4845F82430FFF75DFF337801973A2B2E
:1012E000BED10422711C02A802F022FC029B0193D1
:1012F000019B48F82430033487E700BFB6CF0008CD
:10130000BDCF0008AECF0008941300209412002037
:1013100070477047074B08499A68084810B5043A67
:1013200052F8044F41F8044F8142F9D14FF0005276
:101330009A6010BD00ED00E0FCFFFF1F940100204B
:1013400008B5FFF7E7FFFFF7A2FDFFF7E2FF08BDD3
:1013500008B5FFF7DDFFBDE80840FFF7A5BA30B5D7
:10136000C36891FAA1F4B4FA84F491FAA1F10325C7
:10137000B1FA81F1640005FA04F4490023EA040398
:1013800002FA01F11943C16030BD012A02D0022ADC
:1013900018BF0022FFF7E3BF2DE9F0410E46411CC4
:1013A000044604D13E224449444801F0C1FA04F005
:1013B0000F08434BC4F3031053F82850FFF7A0FB6A
:1013C00006F007070446836895FAA5F1B1FA81F1A2
:1013D00095FAA5F20320490000FA01F1B2FA82F26F
:1013E00023EA01035200022101FA02F21343A3602F
:1013F00087425AD8DFE807F05E1D021DB8F1070FDB
:10140000C6F303203BD9626A2B0A93FAA3F1B1FA1F
:1014100081F193FAA3F34FF00F0EB3FA83F389002F
:101420000EFA01F19B0022EA010200FA03F31343D2
:1014300063623B46226895FAA5F0B0FA80F095FA0F
:10144000A5F14FF0030EB1FA81F140000EFA00F061
:10145000490022EA00028B40013F1343012F236021
:1014600005D8636832074CBF2B43AB436360C6F3B8
:10147000011229462046BDE8F041FFF786BF226AE7
:1014800095FAA5F3B3FA83F395FAA5F14FF00F0E91
:10149000B1FA81F19B000EFA03F3890022EA0302FC
:1014A00000FA01F313432362C3E7672202490548A8
:1014B00001F03EFA0023BDE708D0000807CF00087E
:1014C000C8CF000864D00008431C70B506460D461E
:1014D00004D188221B491C4801F02AFA06F00F02A9
:1014E0001A4BC6F3031053F82240FFF709FB04FB25
:1014F00004F2016802EB42030B40B3FBF2F3013B41
:10150000012B05D8EB1E022B436809D82343436007
:10151000032D08D101222146BDE87040FFF735BFF9
:1015200023EA04034360012DF4D0052D01D0022DE0
:1015300001D10222EFE721460022BDE87040FFF70B
:101540000EBF00BF08D0000807CF0008C8CF0008B2
:1015500042681649920110B50468545053188268C5
:101560005A60C2689A600269DA6042691A61026A66
:101570009A610022DA84DA619A84DA859A85B0F970
:101580001A2001320AD108225A61184600F0A5FD3E
:1015900058B10748BDE8104001F0DCB9B0F9182097
:1015A00001320CBF04220C22EEE710BD1014002003
:1015B00066D000084368094A9B0182B0D3581A6874
:1015C000120706D5002201921A6801925A68019208
:1015D000019A1868C0F3401002B070471014002040
:1015E0004368034A9B01D3581868C0F3C010704782
:1015F00010140020F0B50E4685B004464949304627
:10160000154601F00DF848490746284601F008F84C
:101610000146384600F0E6FF2060013004D13E224A
:101620004249434801F084F92368424A93421ED05C
:1016300002F5806293425ED0A2F5504293422BD1D4
:101640003D4B1A6A42F400321A621A6A22F40032DE
:101650001A62002202921A6C42F400321A641B6C65
:1016600003F400330293029B0123636014E0324BC6
:101670005A6A42F010025A625A6A002122F010029D
:101680005A6201915A6C42F010025A645B6C6160BC
:1016900003F010030193019B2249304600F084FFC0
:1016A0002149284600F080FF721C03D001213046FA
:1016B000FFF70AFF6B1C03D001212846FFF704FF48
:1016C0004FF41653A3600023E36023616361236238
:1016D000268365832046FFF73BFF2268174B9A421B
:1016E00007D1174B174801221A6021464C2202F0FD
:1016F0001FFA05B0F0BD104B5A6A42F020025A6240
:101700005A6A22F020025A62002203925A6C42F076
:1017100020025A645B6C03F020030393039B0523B0
:10172000A3E700BF34CE0008E0CD00087ED000085B
:10173000F0D0000800100140003802400044004092
:10174000A4130020901600208160FFF701BF000065
:1017500038B5446805462846FFF72CFF0028FAD024
:10176000A401034B1B595868C0F3080038BD00BFE3
:101770001014002070B5456806460C463046FFF749
:101780002FFF0028FAD0AD01024B5B59C4F30804C7
:101790005C6070BD101400207047000008B50A4B53
:1017A0001A6842F400721A601A6842F480621A6081
:1017B0001A6842F480721A600F20FFF7A1FAFFF74F
:1017C000EBFF002008BD00BF003C0240024A136846
:1017D00001331360704700BFDC160020014B18680E
:1017E000704700BFDC1600200368F7B50446D80731
:1017F0003BD42368990700F1868023681E0700F117
:10180000D18023685D072AD5002301938E4B8F4D2D
:101810001A6C42F080521A641B6C03F080530193DF
:10182000019B2B6843F480732B60FFF7D7FF0646BC
:101830002B68DA0540F1D880A368834D012B40F076
:10184000DA802B6F43F001032B67FFF7C7FF7E4D54
:10185000064641F288372B6F9B0740F1ED80A26965
:10186000002A40F0F980002015E0774B9A6802F0DA
:101870000C02042A07D09A6802F00C02082A0CD144
:101880005B685A0209D5704B1B689B03B1D563682E
:10189000002BAED1012003B0F0BD63686A4DB3F5F3
:1018A000803F11D12B6843F480332B60FFF796FF04
:1018B000654D06462B689F039BD4FFF78FFF801B67
:1018C0006428F7D90320E6E7B3F5A02F04D12B68ED
:1018D00043F480232B60E5E72A6822F480322A60F3
:1018E0002A6822F480222A60002BDFD1FFF776FFDE
:1018F00006462B6898037FF57CAFFFF76FFF801BD0
:101900006428F6D9DEE7504B9A6812F00C0F07D026
:101910009A6802F00C02082A16D15B68590213D4A7
:10192000494B1A68920702D5E268012AB2D11868B9
:10193000F82292FAA2F2B2FA82F122698A4020F0E9
:10194000F8010A431A6058E7E268414BDAB1012214
:101950001A60FFF743FF3C4D06462B689B070CD5EA
:101960002968F82393FAA3F3B3FA83F22369934027
:1019700021F0F80213432B603FE7FFF72FFF801B96
:101980000228EAD99EE71A60FFF728FF2E4D064687
:101990002B689F077FF531AFFFF720FF801B0228E0
:1019A000F6D98FE762692B4B7AB101221A60FFF7F3
:1019B00015FF254D06466B6F98073FF522AFFFF7E1
:1019C0000DFF801B0228F6D97CE71A60FFF706FF9F
:1019D0001D4D06466B6F99077FF513AFFFF7FEFEAF
:1019E000801B0228F6D96DE7FFF7F8FE801B02285E
:1019F0007FF61EAF66E7052B04D12B6F43F004037F
:101A00002B671EE72A6F22F001022A672A6F22F055
:101A100004022A67002B7FF418AFFFF7DFFE41F2C4
:101A2000883706462B6F98077FF519AFFFF7D6FE6C
:101A3000801BB842F6D945E7FFF7D0FE801BB842BD
:101A40007FF609AF3EE700BF00380240007000405B
:101A500000004742800E47422B4DAB6803F00C0359
:101A6000082B3FF417AF294E0023022A33603ED1E2
:101A7000FFF7B4FE07462B68990132D447F6C077CA
:101A800097FAA7F74FF44032B7FA87F792FAA2F223
:101A90004FF07061B2FA82F091FAA1F1226AE36923
:101AA0001343626A02FA07F7A26A5208013A8240B7
:101AB0003B431343E26A144CB1FA81F102FA01F19B
:101AC0000B436B6001233360FFF788FE05462368F4
:101AD0009A013FF5C8AEFFF781FE401B0228F6D9F8
:101AE000F0E6FFF77BFEC01B0228C4D9EAE6FFF749
:101AF00075FE04462B689B017FF5B5AEFFF76EFEC1
:101B0000001B0228F6D9DDE600380240600047429B
:101B1000194A936803F00C03042B10B503D0082B6B
:101B200003D0164810BD164810BD5168536801F027
:101B30003F0113F4800F47F6C074536894FAA4F081
:101B4000B0FA80F003EA040323FA00F314BF0C4850
:101B50000A48B0FBF1F05843074B4FF440325B6842
:101B600092FAA2F2B2FA82F203F44033D340013384
:101B70005B00B0FBF3F010BD003802400024F4001D
:101B800000127A00564B1A6802F00F028A422DE9C1
:101B9000F04105460E4630D32A68940737D4D00763
:101BA0003DD44F4B1A6802F00F029642C0F0888075
:101BB0002A68510700F18C80130707D5494A296923
:101BC000936823F4604343EAC1039360FFF7A0FFE7
:101BD000444BF0229B6892FAA2F2B2FA82F203F02E
:101BE000F003D340404AD35CD840404B18600F20EC
:101BF000FFF786F80020BDE8F081CAB21A701B68B2
:101C000003F00F039942C7D00120BDE8F0813549A8
:101C1000A8688B6823F0F00303438B60BFE76A6812
:101C2000304B012A1ED11B6813F4003FECD02D4C21
:101C3000A36823F003031343A360FFF7CFFD6B6892
:101C4000012B074641F2883816D1A36803F00C0334
:101C5000042BA6D0FFF7C2FDC01B4045F5D90320D9
:101C6000BDE8F081911E01291B6802D813F0007FA6
:101C7000DCE713F0020FD9E7022B0AD1A36803F0C7
:101C80000C03082B8DD0FFF7A9FDC01B4045F5D9EB
:101C9000E5E7032B0FD1A36803F00C030C2B80D0D6
:101CA000FFF79CFDC01B4045F5D9D8E7FFF796FD2F
:101CB000C01B4045D3D8A36813F00C0FF6D170E7D2
:101CC000F2B21A701B6803F00F039E429CD16FE7BB
:101CD0000449E8688B6823F4E05303438B606BE7A7
:101CE000003C0240003802400CD10008A80100204E
:101CF000084B4FF4E0529B6892FAA2F2B2FA82F2D9
:101D000003F4E053D340044AD35C044A1068D8403B
:101D1000704700BF003802401CD10008A801002015
:101D2000084B4FF460429B6892FAA2F2B2FA82F238
:101D300003F46043D340044AD35C044A1068D8409B
:101D4000704700BF003802401CD10008A8010020E5
:101D50000F2303600B4B9A6802F0030242609A68FB
:101D600002F0F00282609A6802F4E052C2609B685E
:101D7000DB0803F4E0530361034B1B6803F00F031C
:101D80000B60704700380240003C02407047000082
:101D9000224A036890420ED0B0F1804F0BD0A2F5DA
:101DA0007C42904207D002F58062904203D002F557
:101DB0008062904219D14A6823F070031343174A96
:101DC000904204D1CA6823F44073134318E0B0F181
:101DD000804FF7D0124A9042F4D002F580629042D0
:101DE000F0D002F580629042ECD00E4A9042E9D0E9
:101DF00002F580629042E5D002F580629042E1D027
:101E000003608B68C3620B688362044B984204BF13
:101E10000B69036301234361704700BF0000014069
:101E2000000400400040014010B50446A0B190F805
:101E3000393003F0FF021BB980F83820FFF7A6FF06
:101E4000022384F839302068211DFFF7A1FF012308
:101E500084F83930002010BD012010BD036A10B590
:101E600001248C4023EA04030362036A8A401A4374
:101E7000026210BD10B5044601220068FFF7EEFFB4
:101E80002368064A934202BF5A6C42F400425A64E5
:101E90001A6842F001021A60002010BD00000140E3
:101EA000FFF7E8BF2DE9F0470668C2683369C169EA
:101EB00023F4405313433361044683680069F26896
:101EC0000343606922F41642034322F00C020B43E1
:101ED0001343F3607369A26923F440731343B1F5AC
:101EE000004F73617A4B7CD19E4203D003F580632F
:101EF0009E4244D1FFF714FF192505FB00F36068EB
:101F00004FF064094000B3FBF0F3B3FBF9F34FEA81
:101F10000318FFF705FF636868435B00B0FBF3F746
:101F2000FFF7FEFE636868435B00B0FBF3F3B3FBAF
:101F3000F9F309FB1373DB003233B3FBF9F35B00F6
:101F400003F4F877FFF7ECFE626868435200B0FBD9
:101F5000F2FAFFF7E5FE636868435B00B0FBF3F35A
:101F6000B3FBF9F309FB13A3DB003233B3FBF9F343
:101F700003F0070343443B44B360BDE8F087FFF739
:101F8000B7FE192505FB00F360684FF064094000B7
:101F9000B3FBF0F3B3FBF9F34FEA0318FFF7A8FE26
:101FA000636868435B00B0FBF3F7FFF7A1FE63686B
:101FB00068435B00B0FBF3F3B3FBF9F309FB137366
:101FC000DB003233B3FBF9F35B0003F4F877FFF780
:101FD0008FFE626868435200B0FBF2FAFFF788FE9A
:101FE000B9E79E4202D03B4B9E4240D1FFF798FE9C
:101FF000676819254FF0640905FB00F3BF00B3FBC8
:10200000F7F3B3FBF9F31F01FFF78AFE6368684338
:102010009B00B0FBF3F8FFF783FE636868439B0007
:10202000B0FBF3F3B3FBF9F309FB13831B0132336A
:10203000B3FBF9F303F0F008FFF772FE6268684340
:102040009200B0FBF2FAFFF76BFE636868439B00F7
:10205000B0FBF3F3B3FBF9F309FB13A31B0132331A
:10206000B3FBF9F303F00F0343EA080383E7FFF739
:102070003FFE676819254FF0640905FB00F3BF00B8
:10208000B3FBF7F3B3FBF9F31F01FFF731FE63680E
:1020900068439B00B0FBF3F8FFF72AFE63686843D0
:1020A0009B00B0FBF3F3B3FBF9F309FB13831B01B4
:1020B0003233B3FBF9F303F0F008FFF719FE62685F
:1020C00068439200B0FBF2FAFFF712FEBDE700BFD3
:1020D0000010014000140140704710B5044640B3A1
:1020E00090F8393003F0FF021BB980F83820FFF771
:1020F000F3FF2268242384F83930D36823F4005393
:10210000D3602046FFF7CEFE23681A6922F490427E
:102110001A615A6922F02A025A61DA6842F40052BE
:10212000DA6000202023E06384F8393084F83A3004
:1021300010BD012010BD7FB50F2301930223029330
:102140004FF480520023032101A8039304920593C6
:10215000FFF718FDB0FA80F0400907B05DF804FB06
:102160000F49D1F8883043F47003C1F888300D4B23
:102170001A68002042F001021A6098601A6822F082
:10218000847222F480321A60074A5A601A6822F474
:1021900080221A60D8604FF000638B60704700BFE8
:1021A00000ED00E0003802401030002400B58FB090
:1021B0001C4B002100911A6C42F080521A641B6C77
:1021C000194A03F080530093009B0191136823F494
:1021D000404343F400431360136803F44043019306
:1021E000019B01230293C0B94FF480330393022370
:1021F00008934FF48003099304230A930C93082354
:10220000C8220DEB03000B920D93FFF7EDFA38B9DE
:10221000FFF791FF0FB05DF804FB4FF4A023E5E753
:102220000020F7E7003802400070004010B58EB083
:1022300000241A4B00941A6C42F080521A641B6CF2
:10224000174A03F080530093009B0194136823F412
:10225000404343F4004313601368039403F4404382
:102260000193019B099403230293012305931023F7
:1022700006930223C822089308230B920DEB030058
:1022800004220A930C920D93FFF7AEFA18B9FFF7E8
:1022900052FF0EB010BD2046FBE700BF00380240E1
:1022A0000070004008B50120FFF780FF18B9FFF764
:1022B000BDFF00B9FEE708BD174A1849936803F04F
:1022C0000C03042B10B50DD0082B0DD0144B0B6054
:1022D000114B144A9B68C3F30313D25C0B68D340C1
:1022E0000B6010BD104BF2E75468506852686302EF
:1022F000C2F3881200F03F004CBF0B4B084BB3FBFE
:10230000F0F35343044A5268C2F3014201325200CF
:10231000B3FBF2F3DBE700BF00380240A801002066
:102320000024F4000CD1000800127A00704700006D
:10233000014B586A704700BF000C0040054B1B68FA
:10234000DA6822F00202DA605863DA6842F00202C8
:10235000DA607047E0160020034B1A68536943F0B7
:1023600002035361704700BFE0160020034B1A6858
:10237000D36823F00203D360704700BFE01600204B
:10238000024B1B686FF002021A617047E0160020D2
:102390007047000070B50446074B44F8043B0546FF
:1023A00000F1440654F8040B08B1FEF7F1FEB44204
:1023B000F8D1284670BD00BF2CD1000810B50446E6
:1023C000FFF7E8FF2046FEF7E3FE204610BD0000C1
:1023D0002DE9F04188B00546ADF80430BDF938303C
:1023E000ADF80630BDF93C30ADF80830BDF94030ED
:1023F000ADF80A30BDF94430ADF80C30BDF94830C5
:10240000ADF80E30BDF94C30ADF81030BDF950309C
:10241000ADF81230BDF95430ADF81430BDF9583074
:10242000ADF81630BDF95C30ADF81830BDF960304C
:10243000ADF81A30BDF964301948ADF81C300024ED
:10244000BDF968302860ADF80010ADF80220ADF895
:102450001E306C642F1D3DF91480B8F1FF3F1DD074
:102460001C20FEF785FE002106461C2201F05EFCC2
:102470004146304600F094F8B8F1FF3F47F8046B4E
:1024800005D0012303FA04F26B6C13436B6401342F
:10249000102CE0D1284608B0BDE8F0810026EBE71B
:1024A0002CD1000870B50446054654F8043B9B68DF
:1024B0000E469847002354F8040B48B146FA03F23D
:1024C00012F0010F026812BF8168C16812040A602D
:1024D0000133102BEFD12B682846DB68BDE8704034
:1024E000184710B50446FFF7DDFF204610BD03680E
:1024F0009B681847094B10B5002203600023C0E910
:102500000223002303614361044600F0CBF8044931
:10251000A06100F088F9204610BD00BF44D100083A
:10252000EF24000807B5009000F10801806900F071
:10253000A7F903B05DF804FB00F10801806900F021
:10254000C9B9000010B5034B03600446FFF7F4FF60
:10255000204610BD44D1000838B504460D46036836
:102560005AB18268136020460121FEF773FB2946A9
:102570002046BDE83840FEF769BBC2681B04F1E79E
:1025800070B50E4604461546FEF740FB013606D0F0
:102590002A4620460021BDE87040FFF7DDBF70BD30
:1025A0000022FFF7EDBF000010B5044601300DD149
:1025B00010BD9C4209D120468968FEF7EDFE2046F9
:1025C0000021BDE81040FEF77FBF0C31B1F90030AB
:1025D0005A1CEED10248BDE8104000F0BBB900BF64
:1025E00081D10008884208B508D0431C06D00131CB
:1025F00006D0044800F0AEF94FF0FF31084608BDA0
:102600000146FBE750D10008B1F900305A1C01D156
:1026100018467047834201D1486870470C31F3E790
:10262000421C10B5044607D0FFF7EEFF431C0446DA
:1026300002D1024800F08EF9204610BD61D1000899
:1026400008B500F0EDF9094B1A884FF6FF739A426E
:1026500004D100F011FA064800F07CF9012103488A
:1026600000F028FABDE8084000F006BAA8130020E0
:1026700092D1000808B500F0D3F9084B1B8823B9A4
:1026800000F0FAF9064800F065F90121034800F06E
:102690001EFABDE8084000F0EFB900BFA813002003
:1026A000BFD1000800487047E8D10008014800F099
:1026B000C5B800BFE8D1000870B5D0E90823D0E95B
:1026C0000245064612196B41FFF72CFF736B2BB1C5
:1026D00006F128001B68BDE87040184770BDD0B5F2
:1026E000044616461F4600F09BF92046FFF724FFDC
:1026F000C4E90867A06900F008F9321847EB010344
:102700002046FFF70FFFBDE8D04000F0B5B97FB518
:10271000044600F085F92046FFF70EFF636B13B106
:1027200094F83830E3B904F128066D4610220021F0
:10273000684601F0FBFAAE420BD03046FEF785F852
:102740003EB1039B1BB15B68694630469847039BCB
:1027500063632846FEF779F800F08EF904B070BD87
:10276000FFF788FFDFE70368D0B544685B68D4E90A
:10277000026798470022B04242EA00023B4602D27A
:10278000003247F10103C4E90223D0BD2DE9F04135
:102790000646FFF7E8FF726837685368D2E902011E
:1027A0002BB3D3E90023994208BF904203D37B693E
:1027B000BDE8F0411847141A63EB0105002D08BF6E
:1027C000B4F1E04F13D2121A84183B69204641F14C
:1027D000000598473046FFF7C6FF7368D3E9022328
:1027E000AB4208BFA24205D333685B69E0E74FF014
:1027F000E042E9E7BDE8F081036810B504461B68D4
:102800009847636800221A605A6000200021012264
:10281000C3E902011A742046FFF7A5FF2046BDE870
:102820001040FFF7B3BF38B543681B7C04460D4624
:102830000BB9FFF7E1FF63681D6038BD036870B531
:10284000DB680446984763685B68A3B12046FFF7DE
:102850008AFF65686E68D5E90201D6E900239942CE
:1028600008BF904207D3F3686B602B68002BEAD057
:10287000B0689847E7E72046BDE87040FFF786BF9D
:102880002DE9F84305460C4616461F46DDF8208024
:1028900000F0C6F82846FFF766FF6968C4F80880AC
:1028A000C4E900674B6800224BB9E36082B94C6011
:1028B0002846FFF76BFFBDE8F84300F0DDB8D3E929
:1028C00000894F4508BF4645EFD31A46DB68EBE762
:1028D000D460EDE738B505460C4600F0A1F86A680B
:1028E0005368A34209D1DB6853602846FFF74EFFC7
:1028F000BDE8384000F0C0B81346002BF8D0DA68C5
:102900009442F9D1E268DA60F2E743681B7C10B5C3
:1029100004460BB9FFF770FF2046FFF724FF6368FA
:10292000D3E9020110BD08B5FFF7EFFF08BD0000B5
:1029300070B504460D46164600F072F833462A4636
:1029400021460348FEF796FABDE87040FEF73CBA10
:102950001CD200080FB413B5084B1A784AB90124E9
:1029600005A904981C700191FEF75AFA2046FEF75B
:10297000CFFB02B0BDE8104004B07047C813002080
:1029800010B50023036043600A782F2A04460DD156
:102990004A785AB1481C2060194623681A782F2AB1
:1029A00006D10133236000F0A1F96060204610BD1C
:1029B000002AF8D0013301312360EEE70068704748
:1029C000406808B520B100F041F9431E5842584113
:1029D00008BD10B50446FFF7F3FF10B1606800B101
:1029E000043810BD406808B520B100F02FF9B0FAE6
:1029F00080F0400908BD10B50446FFF7F3FF10B1A1
:102A0000606800B1043810BD4068003018BF012074
:102A10007047EFF31080C04300F0010070470000E2
:102A200038B5FFF7F6FF054672B60E4C236823B99A
:102A300080F001030C4ADBB213702368013304D128
:102A400043220A490A48FFF773FF23682BB125B1D7
:102A5000472206490748FFF76BFF236801332360CD
:102A600038BD00BFCC130020C91300204DD2000890
:102A7000A6D20008CCD2000810B50A4C236883B156
:102A8000FFF7C7FF20B1582207490848FFF750FF5A
:102A90002368013B236023681BB9054B1B7803B9EE
:102AA00062B610BDCC1300204DD20008CCD2000875
:102AB000C913002038B505460C46FFF7B1FF298839
:102AC0000C44A4B22C80FFF7D7FF204638BD70B568
:102AD00005460E46FFF7A4FF2C88A41BA4B22C8049
:102AE000FFF7CAFF204670BD0020704700207047E6
:102AF000036801221B6900211847036800221B6933
:102B000011461847F8B50368DB6C0E4604468F186B
:102B100098473546BD4207D0236815F8011B5B6C0A
:102B2000204698470130F5D1236820461B6D984711
:102B3000A81BF8BDF8B50368DB6C0E4604468F1879
:102B400098473546BD4208D0236820469B6C98477D
:102B5000431C02D005F8010BF4E7236820461B6DE7
:102B60009847A81BF8BD00207047704700207047A9
:102B70000020704710B5054B03604C33044640F805
:102B8000043F00F083F8204610BD00BFE8D20008E3
:102B9000A0F10400EEE700BF10B50446FFF7EAFF1E
:102BA0002046FEF7F5FA204610BDA0F10400F3E739
:102BB0000F4B10B50022044640F8043B00F048F8E3
:102BC0000C4B23605C336360002363610A49204639
:102BD00000F0C5F8606118B1FEF79FFA204610BDFD
:102BE00000F0C4F801680548FFF7B4FEF6E700BF3F
:102BF000E4D3000868D300083CD300083FD30008A2
:102C000010B5074B03F108026433044602604360C9
:102C1000406900F0F3F82046FFF7ACFF204610BDF6
:102C200060D3000870B50446FFF73CFD0646FFF789
:102C30007AFE05463046FFF776FE401BA042F9D3E8
:102C400070BD4FF47A735843FFF7ECBF007B7047B9
:102C500038B504460A4B0360002343600D46A1606B
:102C600002730848FEF796FA45B1074B1A6862608E
:102C70001C600448FEF78EFA204638BD6560F8E710
:102C8000D4D30008D4130020D013002010B50F4B6C
:102C9000036004460E48FEF77DFAA3682BB10D4A87
:102CA00013689C420CD1636813600948FEF772FAFE
:102CB000237B13B9201FFEF783FA204610BD13466D
:102CC0005A689442FBD162685A60EEE7D4D3000898
:102CD000D4130020D013002010B50446FFF7D6FF10
:102CE0002046FEF755FA204610BD000070B5064696
:102CF0000C480D46FEF74EFA0B4B1C685CB1A06801
:102D000070B12A46314601F009FC48B9A06801F0CB
:102D100097FB854204D10348FEF73CFA204670BD7C
:102D20006468EBE7D4130020D0130020036870B56B
:102D30001B690122002104469847051E0DDB23680C
:102D400002221B690021204698472368064629462F
:102D50001B690022204698473546284670BDFEF77D
:102D6000DFB900000028B8BF40427047014B186827
:102D7000704700BFB001002000293DD070B5054666
:102D80000C4608B1836B7BB3B4F90C300BB900204F
:102D900070BD2146284600F039F8E36A064633B193
:102DA000E169284698470028B8BF4FF0FF36A3894D
:102DB0001B061CD4216B41B104F14003994202D09F
:102DC000284608F0BFFE00232363616C21B128462A
:102DD00008F0B8FE0023636400F0D0F90023A3815B
:102DE00000F0CEF9304670BD00F0C4F9CCE721699F
:102DF000284608F0A7FEDDE700207047024B014699
:102E00001868FFF7B9BF00BFB0010020B1F90C305E
:102E10009AB22DE9F0410D46110780463CD46A680C
:102E200043F40063002AAB8173DDAC6A002C4BD005
:102E30009BB203F48052002192B2D8F80060C8F827
:102E40000010002A69D02A6D5F0705D569682B6BD1
:102E5000521A0BB1EB6BD21A0023E9694046A04726
:102E6000441C3CD0B5F90C302A692A6023F4006375
:102E70000022AB81DB046A6049D4296BC8F800608A
:102E800011B305F14003994202D0404608F05AFEC2
:102E900000202863BDE8F0812E69AEB12C682E6059
:102EA00090070CBF6B690023A41BAB600AE02346AC
:102EB00032466F6AE9694046B8470028A4EB00042F
:102EC000064404DD002CF2DC0020BDE8F081AB8973
:102ED00043F04003AB814FF0FF30BDE8F081D8F8FC
:102EE00000201D2AF3D81A4BD34003F0010383F0CE
:102EF0000104002BEBD0B5F90C302969296023F4CB
:102F00000063D9046C60AB81B7D5002AB5D12865C0
:102F1000B3E7EA6B002A88DCD6E70123E96940467B
:102F2000A047431C024602D0AB89AC6A8CE7D8F8B4
:102F30000030002BF8D01D2B01D0162B02D1C8F881
:102F40000060C1E7AB8943F04003AB81BDE8F0818D
:102F50000100402010B5044682B008B1836B53B124
:102F6000B1F90C0008B902B010BD204602B0BDE8AE
:102F70001040FFF74BBF019100F0FCF80199EFE71B
:102F800020B1054B01461868FFF7E4BF034B044925
:102F9000186800F0A7BC00BFB001002028D40008CA
:102FA000552F000800207047014900F09BBC00BF6E
:102FB000792D00082DE9F04F354B4568C363002497
:102FC000074600F53B7204230321C0F8E412C0F861
:102FD000E822C0F8E04283B02C606C60AC606C66A4
:102FE000EC812C616C61AC61AB81214605F15C0028
:102FF000082200F09BFEBE68DFF898B0DFF898A0CA
:10300000DFF89890DFF89880C5F820B001230922F6
:10301000C5F824A0C5F82890C5F82C80ED6121469C
:10302000F381B28106F15C0034607460B460746650
:1030300034617461B4610822019300F077FEFD6889
:10304000F66112200222C6F820B0C6F824A0C6F805
:103050002890C6F82C802146A881EA812C606C60FB
:10306000AC606C662C616C61AC6105F15C0008229F
:1030700000F05CFE019BED61C5F820B0C5F824A00E
:10308000C5F82890C5F82C80BB6303B0BDE8F08F6D
:10309000A92F0008C5400008ED400008294100089C
:1030A000494100080020704770B568234D1E03FB9E
:1030B00005F50E4605F1740108F040FD044640B1E7
:1030C00000210C30666005F168022160A06000F00C
:1030D0002DFE204670BD00BF204B70B51D68AB6B48
:1030E000064613B92846FFF765FF05F538756B6886
:1030F000AC68013B05D521E0013B5A1C04F1680492
:103100001CD0B4F90C20002AF6D1002501234FF67B
:10311000FF72E281A38165662560A5606560256117
:103120006561A5612946082204F15C0000F0FEFDFE
:10313000256365636564A564204670BD2B680BB18B
:103140001D46D4E704213046FFF7AEFF286008B1E2
:103150000546CCE70C23336070BD00BF28D40008BF
:10316000024B0349186800F0BDBB00BF28D400081B
:10317000792D0008836B03B170471BE7704700BFD0
:10318000704700BF704700BF704700BF024B034944
:10319000186800F081BB00BFB0010020A530000816
:1031A000024B0349186800F077BB00BFB001002054
:1031B000A52F000838B5074D074C2C1BA41005D0CF
:1031C000013C55F8043D9847002CF9D1BDE8384042
:1031D00009F0E0BA7C0A0020780A0020F0B5134616
:1031E00083B00F4601AA1946064603F0A7FEF0B1C8
:1031F00005463046FFF770FF0446C0B139464FF42C
:10320000DB73019A304600F0DFFD00281BDB124B18
:10321000124F1349134AE362EB05E081A581E46193
:1032200027626162A26205D4204603B0F0BD00208F
:1032300003B0F0BD304602230022214600F01CF806
:10324000204603B0F0BD0025FFF798FFA581FFF7EA
:1032500097FF2846E9E700BF49410008C54000083C
:10326000ED40000829410008024B0A460146186853
:10327000FFF7B4BFB001002000F00CB810B4044C4C
:1032800013460A46014620685DF8044B00F002B878
:10329000B00100202DE9F04F0C4691B091461E463A
:1032A000054610B1836B002B74D0A38903F484739B
:1032B000B3F5847F76D0D4F82880B8F1000F00F001
:1032C0004181012E4BD0022E08D03EB116232B6037
:1032D0004FF0FF37384611B0BDE8F08F4FF0000ACD
:1032E00023695746002B00F01881B4F90C2040F6F2
:1032F0001A0391B20B4043B949055FD4944B9845EA
:1033000000F0F78042F40062A28121462846FFF7D0
:1033100021FE07460028DBD133464A46E1692846AC
:10332000C0470130D4D0216B41B104F14003994230
:1033300002D0284608F006FC00232363A3892269F3
:10334000226023F402630021A381616004F15C0028
:10335000082200F0EBFC384611B0BDE8F08F2146A2
:103360002846FFF7F7FDA38903F4805292B2002AA2
:1033700000F0B580276D5E075DD4180740F1AD8081
:10338000226823690AB1D21A1744B9444FF0010ADE
:103390000026A7E7FFF7EEFEA38903F48473B3F5D5
:1033A000847F88D121462846FFF7D4FD83E7A3898F
:1033B0004FF4806243F48063A381E264002E43D122
:1033C000CB46BAF1000F4ED1A389DA0440F1AA80AE
:1033D000206D6368216BC71A002900F0AC80E26B96
:1033E000BF1A1F442069A36B1B1AFF1A1344BB4565
:1033F0003FDBFA185A453CD9C7EB0B073844DB1BB7
:1034000084E8090041B104F14003994202D0284602
:1034100008F098FB00232363A38923F02003A381F2
:1034200004F15C000822002100F080FC00273846EF
:1034300011B0BDE8F08F6268236BBF1A002B4CD02F
:10344000E26B2369BF1AA0E701AAB4F90E1028465F
:1034500000F08CF800287FF458AF059B09EB030BB4
:10346000BAF1000FB0D0216B6368002963D0E26B22
:10347000B7E7E76CE1697F4207EA0B073A460023AA
:103480002846C04701303FF440AF2369216B2360D9
:103490000023636041B104F14003994202D0284601
:1034A00008F050FB00232363A389BBEB070B23F039
:1034B0002003A381B4D02146284600F0C9FC00288F
:1034C0007FF423AF626893453FF61FAF2368CBEBD1
:1034D00002025B4462602360A2E7236955E733463A
:1034E000E1692846C047431C07463FF4F1AEA38973
:1034F00041E7B4F90E100029FFF604AF01AA2846EF
:1035000000F034F830B9029B03F47043B3F5004F78
:103510003FF44DAFB4F90C20F4E62146284600F004
:1035200063FAE2E601235246E1692846C047431C9C
:103530007FF44FAFE9E622682069121ABF1A1344DC
:10354000002154E71D232B604FF0FF37C2E600BF78
:103550002941000810B4044C13460A46014620686D
:103560005DF8044BFFF796BEB001002038B50B465E
:10357000074C05461146184600232360FDF766FDFB
:10358000431C00D038BD2368002BFBD02B6038BD16
:103590001C1700209368002B76D02DE9F04F8B8903
:1035A00085B00C4619070190164629D522693AB311
:1035B00003F002081FFA88F0356800282FD04FF07A
:1035C0000009B44FC846B246B84543464A4628BFEC
:1035D0003B460198B8F1000F50D0E169666AB047E8
:1035E000002871DDDAF808301B1A8144C0EB0808A6
:1035F000CAF80830002BE7D1002005B0BDE8F08FF5
:103600002146019802F078FC002840F03A81A38915
:10361000356803F002081FFA88F00028CFD113F0B4
:1036200001095BD14F4602961FB39A05D4F8088072
:103630002CD54745C246C0F0A48013F4906F40F0EB
:10364000B18020685246494600F00CFBA068236810
:10365000C8EB00005344A06023603846029A936888
:103660001B1A81443F1A9360002BC5D0A389002FF9
:10367000DBD1D5F800906F680835D5E7D5F8009014
:10368000D5F8048008359FE700207047206823693B
:10369000984203D861698F4280F0B780B84528BF4F
:1036A000B8464246494600F0DDFAA3682268C8EBF6
:1036B00003034244A3602260002B49D121460198B4
:1036C000FFF748FC002843D0B4F90C3043F0400326
:1036D0004FF0FF30A38105B0BDE8F08F8046029027
:1036E00082468146B9F1000F2AD0029B002B4CD0B4
:1036F000206823696269C845C34628BFCB46984203
:103700005F4604D9A36813449B4500F3908093451A
:1037100020DB1346676AE16901985246B847071EE5
:10372000D2DDB8EB070823D0B368DB1BBA44C7EB84
:103730000909B360002B3FF45FAFB9F1000FD4D19A
:103740000023D5F800A0D5F8049002930835C9E706
:10375000404683E75A46514600F084FAA26823683F
:10376000CBEB02025B44B8EB0708A2602360DBD11D
:1037700021460198FFF7EEFB0028A5D1CDF808807F
:10378000D2E72068B846BA465CE74A460A21504666
:1037900000F07EF900286FD001300123CAEB000849
:1037A0000293A5E762692068216902EB4208C1EB38
:1037B000000A08EBD8780AF101004FEA680838449B
:1037C0004045424684BF804642465B0542D511468D
:1037D000019808F0B3F98346002855D05246216974
:1037E00000F0A6F9A38923F4906343F08003A3813A
:1037F000CAEB08030BEB0A00C4F81480C4F810B03D
:103800002060A360B846BA461CE76FF00043BB4295
:1038100028BF3B464A4693FBF1F30198666A01FBD9
:1038200003F3E169B04700283FF718AF4CE71A46A9
:103830005146039300F016FA2268039B01981A443C
:1038400022602146FFF786FB039B00287FF43CAFF4
:103850001F4666E7019808F073F983460028C7D130
:10386000019D2169284608F06DF9B4F90C300C224D
:1038700023F080032A6029E7012309F1010802935C
:1038800036E74FF0FF30B8E6019A0C231360B4F925
:103890000C301BE700FCFF7F2DE9F04110F5387775
:1038A0001BD0884600267D68BC68013D0FD4A389E3
:1038B000012B05F1FF3506D9B4F90E30013320464E
:1038C00001D0C04706436B1C04F16804EFD13F6888
:1038D000002FE8D13046BDE8F0813E463046BDE8D5
:1038E000F08100BF2DE9F84310F538771FD08846E6
:1038F00006464FF000097D68BC68013D11D4A389DC
:10390000012B05F1FF3508D9B4F90E3001332146FA
:10391000304602D0C04749EA00096B1C04F1680434
:10392000EDD13F68002FE6D14846BDE8F883B9469F
:103930004846BDE8F88300BF70B50F4E0F4D761BAB
:10394000B61018BF002405D0013455F8043B984741
:10395000A642F9D10A4E0B4D761B08F015FFB610A2
:1039600018BF002406D0013455F8043B9847A642FE
:10397000F9D170BD70BD00BF700A0020700A002030
:10398000780A0020700A002070B50D46B1F90E10BB
:10399000002990B014461E4614DB01AAFFF7E6FD8D
:1039A00000280FDB029A02F47042A2F50052B2FA2C
:1039B00082F252094FF480634FF40060326023605A
:1039C00010B070BDA88900F0800082B20020306085
:1039D0001AB14023236010B070BD4FF480631046CD
:1039E000236010B070BD00BF8A8992070B4606D5D0
:1039F00001F1430201211A601A6159617047F0B563
:103A000083B001AB6A460C460546FFF7BDFF00993F
:103A10000646284608F092F8B4F90C30D0B1019A65
:103A2000124F0099EF6343F08003A381206020616F
:103A300061611AB93343A38103B0F0BD2846B4F9DC
:103A40000E1003F0B5FAB4F90C300028F2D043F0B0
:103A50000103EFE79A05EFD404F1430243F00203B8
:103A60000121A381226022616161E5E7A92F00089D
:103A7000024B0146186808F061B800BFB001002091
:103A8000024B0146186808F05DB800BFB001002085
:103A900001F0FF01102A2BDB10F0070F08D010F8FF
:103AA000013B013A8B422DD010F0070F42B3F6D103
:103AB000F0B441EA012141EA014122F007047FF01C
:103AC00000070023F0E80256083C85EA010586EA73
:103AD000010685FA47F5A3FA87F586FA47F6A5FAAF
:103AE00087F68EB9EED1F0BC01F0FF0102F00702BB
:103AF00032B110F8013B013A83EA010313B1F8D166
:103B00000020704701387047002D06BF3546033846
:103B1000073815F0010F07D1013015F4807F02BF7F
:103B2000013015F4C03F0130F0BC0138704700BFD0
:103B3000844641EA000313F003036DD1403A41D3B8
:103B400051F8043B40F8043B51F8043B40F8043B77
:103B500051F8043B40F8043B51F8043B40F8043B67
:103B600051F8043B40F8043B51F8043B40F8043B57
:103B700051F8043B40F8043B51F8043B40F8043B47
:103B800051F8043B40F8043B51F8043B40F8043B37
:103B900051F8043B40F8043B51F8043B40F8043B27
:103BA00051F8043B40F8043B51F8043B40F8043B17
:103BB00051F8043B40F8043B51F8043B40F8043B07
:103BC000403ABDD2303211D351F8043B40F8043BA7
:103BD00051F8043B40F8043B51F8043B40F8043BE7
:103BE00051F8043B40F8043B103AEDD20C3205D3B7
:103BF00051F8043B40F8043B043AF9D2043208D0AF
:103C0000D2071CBF11F8013B00F8013B01D30B8820
:103C100003806046704700BF082A13D38B078DD0FE
:103C200010F003038AD0C3F10403D21ADB071CBFD0
:103C300011F8013B00F8013B80D331F8023B20F83A
:103C4000023B7BE7043AD9D3013A11F8013B00F873
:103C5000013BF9D20B7803704B7843708B788370FB
:103C6000604670478842F0B50DD98B1898420AD249
:103C70008118002A51D09A1A13F8014D01F8014D0C
:103C80009342F9D1F0BD0F2A48D941EA00039B07BE
:103C900046D100F1100401F11003154653F8106CE1
:103CA00044F8106C53F80C6C44F80C6C53F8086C26
:103CB00044F8086C103D53F8046C44F8046C0F2D64
:103CC00003F1100304F11004E8D8A2F1100323F06B
:103CD0000F0302F00F0E1033BEF1030F194403441B
:103CE00021D91E1F0D467446043C55F8047B46F846
:103CF000047F032CF8D8AEF1040424F00304043448
:103D00002344214402F0030262B1013B0A4411F84A
:103D1000014B03F8014F8A42F9D1F0BD0346F3E7A6
:103D20000346F2E7F0BD7246EEE700BF70B48407C9
:103D300046D0541E002A41D0CDB2034602E0621E96
:103D4000E4B3144603F8015B9A07F8D1032C2ED98B
:103D5000CDB245EA05250F2C45EA054519D903F1F1
:103D600010022646103E0F2E42F8105C42F80C5C02
:103D700042F8085C42F8045C02F11002F2D8A4F1A7
:103D8000100222F00F0204F00F041032032C13442F
:103D90000DD91E462246043A032A46F8045BFAD897
:103DA000221F22F003020432134404F003042CB156
:103DB000C9B21C4403F8011BA342FBD170BC70477D
:103DC00014460346C2E700BF70B50D46084C1146C5
:103DD00006461A46284600232360FDF70BFA431CCB
:103DE00000D070BD2368002BFBD0336070BD00BFD6
:103DF0001C1700200EB400B582B003AB816853F8E5
:103E0000042B019300F0DCFB02B05DF804EB03B07F
:103E1000704700BF0FB400B5074983B004AB086812
:103E200053F8042B8168019300F0CAFB03B05DF8DE
:103E300004EB04B0704700BFB0010020838903F099
:103E40000903092B01D000207047FFF799B800BF84
:103E5000F8B50C46054610B1836B002B45D0B4F97C
:103E60000C309AB2970407D4626E43F4005322F4E4
:103E700000526266A3819AB200219606616031D435
:103E8000500722D5216B61B104F14003994202D061
:103E9000284607F057FEE36B636000202063002B89
:103EA0003FD12369002B4CD0B4F90C70BEB2B307DC
:103EB0001ED12269226028466369256AE169A84704
:103EC0000028606009DD0020F8BDD1063ED512074C
:103ED0002AD443F00403A381E3E7A38919D143F073
:103EE0002003A3814FF0FF30F8BDFFF743F9B6E799
:103EF0001A4B1B4918680123A38106F00906FFF736
:103F0000CBFC092EA781D4D121462846FEF77EFF9F
:103F1000CFE7002243F04003A38162604FF0FF30FF
:103F2000F8BDA36B2360F8BD21462846FFF712F8C1
:103F30000028D7D1B4F90C30A060A06123F00803A9
:103F4000C7E721462846FFF74FFDADE743F04003A2
:103F500009222A604FF0FF30A381F8BD28D4000861
:103F60003D3E000800290CBF022200224FF480636E
:103F700000F000B82DE9F043514C256883B00446A9
:103F80000F4690461E4615B1AB6B002B79D0B8F1A9
:103F9000020F04D0B8F1010F7FD8002E7DDB21463F
:103FA0002846FEF7D7FF216B41B104F14003994247
:103FB00002D0284607F0C6FD00232363B4F90C3075
:103FC0000022A26162601A0654D423F44A6323F0EB
:103FD0000303B8F1020FA38139D001AB6A46214631
:103FE0002846FFF7D1FCA3891843A08126B327B345
:103FF000AB6B002B4DD0009BB4F90C0027609E42A8
:104000001CBF40F40060A081B8F1010F08BF40F070
:10401000010083B208BFA08103F0080080B22761CD
:10402000666118B313F001002FD000207642A6611C
:10403000A06003B0BDE8F083009E3046FFF718FD96
:10404000074668B3A38943F08003A381D0E700202B
:1040500004F1430243F0020300250121A381A5607E
:1040600022602261616103B0BDE8F083A06003B00B
:10407000BDE8F0832169284607F064FDB4F90C30EF
:10408000A3E72846FFF776F881E7A66003B0BDE80E
:10409000F0832846FFF76EF8ADE74FF0FF30E2E718
:1040A000DDF80090B14506D04846FFF7E1FC074631
:1040B00008B14E46C6E7B4F90C304FF0FF30C7E701
:1040C000B001002010B50C46B1F90E1003F058FCF9
:1040D000002803DB236D0344236510BDA38923F46B
:1040E0008053A38110BD00BF002070472DE9F0412F
:1040F0001646B1F90C201F46D3050C46054607D5D8
:1041000000220223B1F90E1002F0A4FFB4F90C2032
:10411000B4F90E1022F48052A2813B463246284662
:10412000BDE8F04101F0D2BE10B50C46B1F90E1059
:1041300002F090FFA389421C0EBF23F4805343F486
:1041400080532065A38110BDB1F90E1001F038BF76
:10415000000000000000000000000000000000005F
:10416000A2EB0300704700BF02780B78012A28BF3A
:104170009A42F5D16DE9044540EA0104CDE90267B0
:104180006FF0000C4FEA447212B380EA010414F09D
:10419000070F6AD100F0070420F0070004F00305C0
:1041A00021F007014FEAC505F0E8042314F0040FDD
:1041B000F1E804670CFA05F462EA040266EA040610
:1041C0000AD063EA0403624667EA0407664603E02E
:1041D000F0E80423F1E8046782FA4CF582EA060469
:1041E000A4FA8CF46CBB83FA4CF583EA0705A5FAB4
:1041F0008CF595B950E9022351E9026782FA4CF532
:1042000082EA0604A4FA8CF483FA4CF583EA0705E3
:10421000A5FA8CF52543DBD09CB92DBAB5FA85F407
:1042200024F0070427FA04F1DDE9026723FA04F316
:1042300003F0FF0001F0FF01FDE80445A0EB0100E1
:10424000704724BAB4FA84F424F0070426FA04F17F
:10425000DDE9026722FA04F202F0FF0001F0FF013B
:10426000FDE80445A0EB0100704714F0030F3CD1BA
:1042700010F0030428D150F8082B51F8083B82FABB
:104280004CF582EA0305A5FA8CF55DB950F8042CCB
:1042900051F8043C82FA4CF582EA0305A5FA8CF544
:1042A000002DE8D02DBAB5FA85F424F0070423FADE
:1042B00004F122FA04F202F0FF0001F0FF01FDE830
:1042C0000445A0EB010070474FEAC40420F003004E
:1042D00050F8082B21F0030151F8083B0CFA04F4C4
:1042E00062EA040263EA0403C9E710F003041AD087
:1042F000A1EB040120F00300E40750F8042B06D0E2
:104300000FD28B785FFAA2F4E41A06D12BB1CB78E6
:104310005FFAB2F4E41A00D11BB920465DF8104BE5
:10432000704701F1040150F8042BCC0721F0030180
:1043300051F8043B48D824D222F07F4482FA4CF54D
:1043400094EA1325A5FA8CF50AD165B951F8043B16
:1043500084EA0204B4EB036F0ED150F8042BEBE7B0
:104360004FEA132355E035F07F454DD10878FDE83D
:104370000445C0F1000070474FEA126203F0FF03EA
:1043800047E002EA1C4482FA4CF594EA1345A5FA88
:104390008CF50AD165B951F8043B84EA0204B4EB08
:1043A000034F0CD150F8042BEBE74FEA134330E0F6
:1043B00015EA1C4528D10B884FEA124229E04FEA42
:1043C000124203EA1C4324E002F0FF0482FA4CF597
:1043D00094EA1365A5FA8CF50AD165B951F8043B46
:1043E00084EA0204B4EB032F09D150F8042BEBE765
:1043F0004FEA13630DE015F0FF0F05D10B684FEA8C
:10440000122223F07F4304E04FF00000FDE8044552
:10441000704712BA1BBA82FA4CF482EA0304A4FA77
:104420008CF5B5FA85F402FA04F203FA04F34FEAC4
:104430001260FDE80445A0EB136070470000000027
:1044400090F800F06DE9024520F007016FF0000CD4
:1044500010F0070491F820F040F049804FF000047C
:104460006FF00700D1E9002391F840F000F1080057
:1044700082FA4CF2A4FA8CF283FA4CF3A2FA8CF38F
:104480004BBBD1E9022382FA4CF200F10800A4FAF6
:104490008CF283FA4CF3A2FA8CF3E3B9D1E904234A
:1044A00082FA4CF200F10800A4FA8CF283FA4CF381
:1044B000A2FA8CF37BB9D1E9062301F1200182FA3B
:1044C0004CF200F10800A4FA8CF283FA4CF3A2FA41
:1044D0008CF3002BC6D0002A04BF04301A4612BA4F
:1044E000B2FA82F2FDE8024500EBD2007047D1E952
:1044F000002304F00305C4F100004FEAC50514F0E1
:10450000040F91F840F00CFA05F562EA05021CBFB1
:1045100063EA050362464FF00004A9E7002A41D090
:1045200040EA010313F00303F0B425D1032A23D991
:1045300004680D68AC421FD1043A35D0A4F10135AE
:1045400025EA040414F0803F31D1071D0D1D0DE054
:1045500057F8043B0E68A3F10134B34224EA030484
:104560000AD1043A20D014F0803F23D1032A2946EF
:10457000384605F10405EBD803780C789C4202F12B
:10458000FF320CD182B114B916E06AB17BB110F8D8
:10459000013F11F8014FA34202F1FF32F5D0181B81
:1045A000F0BC7047104670471046F0BC7047184684
:1045B000F0BC70470020F3E72046F1E70000000060
:1045C0002DE9F04FC5B01C460891164605460A90E5
:1045D00002F030FD036817931846FFF731FF0E9481
:1045E00016901DB1AB6B002B00F024810898B0F938
:1045F0000C2093B2990407D4416E42F4005321F485
:104600000051838141669BB21A0740F1DE80089A0F
:104610001269002A00F0D98003F01A030A2B00F077
:10462000E2809FED877B00232993129328931993AF
:104630000B93854B8DED147B03F1100A34AB27935C
:104640009946B04698F800304446EBB1252B02D18C
:104650001AE0252B03D014F8013F002BF9D1C8EB49
:1046600004058DB1289B299AC9F8008001332A449A
:10467000072BC9F804502992289300F3C28009F14E
:1046800008090B9B2B440B932378002B00F0C2806E
:1046900000231A468DF87F3019460C9307934FF08C
:1046A000FF3B637804F101085D4608F10108A3F1BE
:1046B0002000582800F25884DFE810F00E04560459
:1046C0005604170456045604560456045604560459
:1046D0006103480456045D000801560424016F0379
:1046E0006F036F036F036F036F036F036F036F033A
:1046F00056045604560456045604560456045604EA
:10470000560456047F039C0356049C035604560427
:1047100056045604EA03560456042B015604560464
:10472000560456045604540156045604B302560463
:1047300056045604560456045604560456045604A9
:104740005604F4020E039C039C039C033E030E03D9
:1047500056045604450356044F03CA0064001F0460
:10476000560427045604F10356045604F9030C9822
:104770000E9340420C90079B43F00403079398F874
:10478000003092E70E98AB46002104688DF87F1048
:10479000071D0798302378228B458DF880304FF025
:1047A00000058DF8812040F00203C0F2FA8320F06A
:1047B000800343F00203079354EA05030E9700F0C9
:1047C000CB830F46119221485CE208990A9801F0C8
:1047D00093FB002841F03E80089B9B8903F01A035D
:1047E0000A2B7FF41EAF0899B1F90E30002BFFF6AB
:1047F00018AF234632460A9801F08AFA45B0BDE860
:10480000F08F27AA08990A9804F088FC48B90DF19E
:10481000D00936E7299B23B10A98089927AA04F002
:104820007DFC089B9B89590601F114800B9845B0CB
:10483000BDE8F08F0A98FEF79DFCD7E6AFF3008045
:10484000000000000000000030D4000874D400080C
:104850001193AB46002A41F03282079A12F02003EE
:1048600064D00E9F073727F00703002703F10801E4
:10487000BB450E91D3E900458DF87F70C0F2BA8632
:1048800022F08003079354EA050300F0828334AEDC
:10489000E20842EA4572E90804F007030D461446AF
:1048A000303354EA050206F8013DF1D1079AD207E8
:1048B00040F19680302B00F093803022731E06F872
:1048C000012C34AAD21A0D921E468CE098F80030C2
:1048D0002A2B08F1010401F0D081A3F1300009284E
:1048E00098BF002501F26C8114F8013B05EB8505AA
:1048F00000EB4505A3F130000928F5D945EAE57537
:10490000A046D4E6079B43F08003079398F8003055
:10491000CBE61193AB46002A41F0D981079B43F0C7
:1049200010030793079A12F020039AD1079911F008
:10493000100200F034860E988DF87F30BBF1000F26
:10494000046800F104074FF00005C0F252860A46E1
:1049500022F08002079254EA05020E9700F01983B4
:104960001F4694E71193AB46002A41F0A081079BB4
:1049700043F010030793079A12F0200300F0FA8423
:104980000E9F073727F00703002703F10801BB45F7
:104990000E91D3E900458DF87F70C0F2238522F097
:1049A0008003079354EA050300F0BC81002D08BF83
:1049B0000A2CC0F01B8534AE204629460A2200236B
:1049C00006F030FF303206F8012D2046294600233C
:1049D0000A2206F027FF04460D4654EA0503EBD1F0
:1049E00034AB9B1B0D930D9B5B45B8BF5B46099396
:1049F0000023139317B1099B01330993079B13F00D
:104A000002030F9302D0099B02330993079B13F013
:104A10008403109340F0D2820C9B099A9D1A002DBA
:104A200040F3CC82102D2999289AA84F27DD18969B
:104A300048461024B946089E2F460A9D04E0103FC0
:104A4000102F00F1080016DD0132A04B2892103122
:104A5000072A299180E81800F1DD27AA3146284667
:104A600004F05CFB00287FF4DCAE103F102F299986
:104A7000289A34A8E8DC189E3D464F46814601320C
:104A80006C18072A29942892C9F80070C9F80450B4
:104A900000F328849DF87F7009F1080977B1289BFD
:104AA000013301340DF17F010122072B2994289352
:104AB00089E8060000F3A08309F108090F9B6BB198
:104AC000289B0133023420A90222072B2994289322
:104AD00089E8060000F39C8309F10809109B802BEC
:104AE00000F0D0820D9BC3EB0B07002F33DD784A1B
:104AF000289B0F92102F22DD22464FF0100B0A9DAB
:104B0000089C04E0103F102F09F1080916DD01335D
:104B10001032072B2992289389E8000CF2DD27AA8E
:104B20002146284604F0FAFA00287FF47AAE103FB6
:104B3000102F299A289B0DF1D009E8DC1446013387
:104B40000F9A28933C44072B299489E8840000F3AA
:104B5000478309F10809079BDD0500F13182289B95
:104B60000D99C9F8006001330C44072B2994C9F84A
:104B70000410289300F31E8309F10809079B5807C6
:104B80003FD50C9B099A9D1A002D3ADD102D289BCC
:104B90004E4F23DD22461026DDF828B0089C04E0A5
:104BA000103D102D09F1080917DD013347492893FD
:104BB0001032072B299289E84200F1DD27AA21460D
:104BC000584604F0ABFA00287FF42BAE103D102DB0
:104BD000299A289B0DF1D009E7DC144601332C44B7
:104BE000072B29942893C9F80070C9F8045008DDF0
:104BF00027AA08990A9804F091FA00287FF411AEC8
:104C0000299C0B9B0C9A09998A42ACBF9B185B1894
:104C10000B93002C40F0DA82002328930DF1D00989
:104C200010E51193AB46002A41F03D80079B2948CF
:104C30009C0640F146810E9F073727F00703D3E912
:104C4000004503F108020E92079A12F0010700F0E6
:104C5000EB8254EA050300F082859DF844208DF82C
:104C600081200027079A8DF87F703023BB458DF88F
:104C7000803042F00203C0F23B8722F0800343F011
:104C80000203079334AE230904F00F0143EA0573CE
:104C90002A091C461546435C06F8013D54EA050303
:104CA000F1D19DE60E9911930A688DF8A820002392
:104CB0000A461F468DF87F30043201230993BB4614
:104CC00013970E920D932AAE98E600BF30D40008D9
:104CD00040D4000860D400081193AB46002A40F08D
:104CE000EA87079B9B0674D50E9F073727F00707B7
:104CF000D7E9002307F108010E9114461D46002A4A
:104D000073F10003C0F23A84BBF1000F9DF87F708D
:104D1000C0F26883079B23F08003079354EA0503DE
:104D20007FF444AEBBF1000F40F008844FF0000B5D
:104D3000CDF834B034AE56E6079B43F040030793FA
:104D400098F80030B1E498F800306C2B00F0D5856D
:104D5000079840F010000790A7E4002A40F09F87D2
:104D6000079B9F0640F1E4840E9A0B991368CD17B8
:104D70000846043229460E92C3E9000162E40E9C03
:104D800023680C9318460028234603F10403FFF61A
:104D9000EEAC0E9398F8003087E4A3F130000023C6
:104DA0001C4618F8013B04EB840400EB4404A3F117
:104DB00030000928F5D90C9479E41193AB46002A08
:104DC00040F06987079B43F010030793079B9B06FE
:104DD0008AD4079BDF0600F19482079B5E0640F1B0
:104DE00090820E99B1F900400431E51722462B4616
:104DF0000E9184E71193AB46002A40F07087079B21
:104E00000E9F1D0707F1070740F1878427F007036E
:104E100093ED007B8DED147B03F108020E92DDE92A
:104E2000141222F000431A911B93DDE91A454FF04A
:104E3000FF3220462946B54B06F0B6FC002840F06C
:104E4000EB834FF0FF32B14B2046294606F08EFC33
:104E5000002840F0E18300220023DDE9140106F080
:104E60007BFC002840F04A869DF87F70A84EA94B35
:104E7000079921F080010791119903224FF0000B4F
:104E800009924729D8BF1E460D92CDF84CB0B1E526
:104E9000079B43F00803079398F8003005E411934B
:104EA000AB46002A3FF467AD8DF87F1063E51193A0
:104EB000AB46002A40F00F87079B97489C063FF5BA
:104EC000BAAE079BD90640F198830E9A1346043375
:104ED00014680E930025B7E698F8003000297FF497
:104EE000E4AB01222021FFF7E0BB079B43F0010365
:104EF000079398F80030FFF7D8BB079B43F02003D7
:104F0000079398F80030FFF7D0BB0E9A11931668FC
:104F100000248DF87F40171D002E00F0B785002D6E
:104F2000C0F202852A4621463046FEF7B1FD002830
:104F300000F01C86831B0D93A34623EAE3730E97B0
:104F40000993CDF84CB09DF87F7053E598F8003088
:104F500001222B21FFF7A9BB6F481192BBF1000F73
:104F600040F073815F46E1E61193002A40F0AB8682
:104F7000119A002A3FF44EAC002301211F460991EB
:104F80008DF8A8208DF87F309B4613930D912AAEA3
:104F900034E5BBF1000F00F0DA850027002400257E
:104FA00075E45D480793119254EA05030E974FF09C
:104FB00000077FF467AE0024002563E6299C6DE5B9
:104FC000119B652B40F3AE8000220023DDE9140124
:104FD00006F0B8FB002800F03A81289B4F4AC9F838
:104FE0000020013301340122072B29942893C9F8AA
:104FF000042000F3CE8309F10809219B129A934201
:1050000003DB079BD8077FF5B9AD289B1699179A44
:10501000C9F8002001330C44072B2994C9F8041067
:10502000289300F3748409F10809129B5D1E002D7A
:105030007FF7A4AD3A4A289B0F92102D40F3B4811C
:1050400010260A9FDDF820B005E009F10809103D9F
:10505000102D40F3A98101331034072B2994289394
:10506000C9F800A0C9F80460EFDD27AA5946384600
:1050700004F054F800287FF4D4AB299C289B0DF150
:10508000D009E4E70C9B099A9F1A002F7FF72AADFD
:10509000234A289B0F92102F2BDD4A462146B94602
:1050A000102537460A9C089E06E0A9F11009B9F1BF
:1050B000100F02F1080218DD01331031072B29917E
:1050C0002893C2F800A05560EFDD27AA314620469C
:1050D00004F024F800287FF4A4ABA9F11009B9F179
:1050E000100F2999289B34AAE6DC3E460C464F4611
:1050F000914601330F9A28933C44072B299489E861
:10510000840000F32B8209F10809EBE4FFFFEF7F35
:1051100054D4000850D4000874D4000890D4000877
:1051200040D40008129B289D012B40F3D08101350B
:1051300001340123072D29942895C9F80060C9F886
:10514000043000F3E18109F10809169A179BC9F8A8
:10515000003001351444072D29942895C9F80420FE
:1051600000F3DF8109F1080900230022DDE91401C1
:1051700006F0E8FA129B002840F0CC80013B013594
:1051800001361C44072D28952994C9F80060C9F8F8
:10519000043000F3AC8109F10809199AC9F8042018
:1051A0000135144423AB072D29942895C9F8003004
:1051B0007FF7E2AC27AA08990A9803F0AFFF00280E
:1051C0007FF42FAB299C0DF1D009D7E427AA0899C9
:1051D0000A9803F0A3FF00283FF41EADFFF721BBA0
:1051E00027AA08990A9803F099FF00287FF419ABC1
:1051F000299C0DF1D009AEE427AA08990A9803F07A
:105200008DFF00287FF40DAB299C0DF1D00955E4EA
:1052100027AA08990A9803F081FF00287FF401ABC0
:10522000299C0DF1D00959E4BBF1000F8DF87F7076
:10523000C0F20D8322F08003079354EA05037FF444
:1052400021ADBBF1000F3FF48DAE0027B3E6219DE9
:10525000002D40F3AA82139B129A9342A8BF1346D3
:10526000002B1D460DDD289BC9F8006001332C443E
:10527000072B2994C9F80450289300F3878309F178
:105280000809139B002DA8BF5B1B002B1D4640F394
:10529000BE80B94A289B0F92102D40F36D822246A2
:1052A0001027DDF828B0089C05E009F10809103D39
:1052B000102D40F3608201331032072B299228937E
:1052C000C9F800A0C9F80470EFDD27AA21465846A6
:1052D00003F024FF00287FF4A4AA299A289B0DF14B
:1052E000D009E4E727AA08990A9803F017FF0028D5
:1052F0007FF497AA9DF87F70299C0DF1D009FFF7E4
:10530000CDBB0E9A146813460433E5170E9322465C
:105310002B46F4E45E1E002E7FF73FAF964B0F93B3
:10532000102E40F31081CDF834801027B046DDF800
:1053300028B0089E07E009F10809A8F11008B8F1A3
:10534000100F40F3FD8001351034072D2994289566
:10535000C9F800A0C9F80470EDDD27AA3146584607
:1053600003F0DCFE00287FF45CAA299C289D0DF147
:10537000D009E2E7079911F0100220D00E988DF8BD
:105380007F30BBF1000F046800F104074FF0000507
:1053900026DB0A4622F08002079254EA05020E97A5
:1053A0001F467FF403ABBDE401330F9A28932C44CE
:1053B000072B299489E824007FF7DEABFAE60799EA
:1053C00011F0400340F04A820E998DF87F30BBF116
:1053D000000F0C6801F104074FF0000580F21A81FC
:1053E0000E971F4654EA05037FF4E0AA44AE30341A
:1053F00006F8414DFFF7F4BA27AA08990A9803F076
:105400008DFE00287FF40DAA299C0DF1D009139A76
:10541000219B32441746129A934247DB079AD207E0
:1054200044D412990E44F51BCB1A9D42A8BF1D46C9
:10543000002D2E460DDD289AC9F8007001322C444B
:10544000072A2994C9F80450289200F32E8309F101
:105450000809002EACBF9D1B1D46002D7FF78EABAB
:10546000454A289B0F92102D9EDD10260A9FDDF8DD
:1054700020B004E009F10809103D102D94DD01333E
:105480001034072B29942893C9F800A0C9F80460A8
:10549000F0DD27AA5946384603F040FE00287FF485
:1054A000C0A9299C289B0DF1D009E5E7289A1698F8
:1054B0001799C9F8001001320444072A2994C9F841
:1054C0000400289200F3CF8209F10809A9E7079B9D
:1054D000DF073FF52CAE013501340123072D299458
:1054E0002895C9F80060C9F804307FF754AE27AAA0
:1054F00008990A9803F012FE00287FF492A9299CCB
:10550000289D0DF1D00948E627AA08990A9803F0CA
:1055100005FE00287FF485A9299C289D0DF1D0095E
:1055200013E627AA08990A9803F0F8FD00287FF4EB
:1055300078A9299C289D0DF1D00915E6002455E78E
:105540004646DDF834800F9B01353444072D2994FD
:10555000289589E848007FF71EAEC8E727AA089972
:105560000A9803F0DBFD00287FF45BA9299C0DF16C
:10557000D009FFF7B7BA00BF40D4000864424FF02B
:105580002D0765EB4505BBF1000F8DF87F70FFF629
:105590000DAA079B23F080030793FFF707BA07992B
:1055A00011F0400317D00E988DF87F200346BBF111
:1055B000000F03F1040304884FF00005C0F21B83C1
:1055C00021F08001079154EA05010E933FF4E1AC0C
:1055D0001746FFF75CB90E998DF87F30BBF1000FCD
:1055E0000C6801F104074FF0000502DB079AFFF792
:1055F000AFB90E970027FFF74AB9079B0E9A13F031
:10560000400F134600F04281043314880E930025A6
:10561000FFF71ABB079ABDE6DDE9140102460B4607
:1056200006F0C2F8002840F0E882119BBBF1FF3F72
:1056300023F0200700F05F82472F00F05881159B70
:10564000079A002B42F480720F92C0F25C829DEDAB
:10565000147B8DED1C7B00230993119B662B00F0BE
:105660003382462B00F02581452F0CBF0BF101053D
:105670005D4625A822A921AA022304900292009344
:105680000195DDE91C2303910A9800F041FD119B6F
:10569000672B064640F07582079BDA0740F194823B
:1056A000741900220023DDE91C0106F04BF80028E4
:1056B00040F07881259B9C4206D930215A1C2592C6
:1056C0001970259B9C42F9D89B1B472F129300F021
:1056D0005681119B652B40F36382119B662B219BA6
:1056E000139300F02682139A12998A42C0F2148210
:1056F000079BDB0700F16A8222EAE2730D926722C0
:105700001192099A002A40F0178109930F9B079381
:1057100093469DF87F70FFF76DB927F0070797ED67
:10572000007B07F108038DED147B0E93FFF777BB29
:10573000079BDE060BD4079B5D0608D50E9A1368FF
:1057400004320E92BDF82C201A80FEF77BBF0E9A11
:10575000136804320E920B9A1A60FEF773BF00278B
:10576000BB458DF87F70FFF626AC079B23F08003C6
:105770000793FFF7F3BB144601330F9A28932C4489
:10578000072B299489E824003FF736AE09F1080970
:105790003DE627AA08990A9803F0C0FC00287FF488
:1057A00040A8299C0DF1D00927E4289BB44AC9F8E8
:1057B0000020013301340122072B29942893C9F8D2
:1057C000042069DC09F108092DB9129B1BB9079B5C
:1057D000D9077FF5D3A9289B1699179AC9F80020F5
:1057E00001330C44072B2994C9F80410289300F3C3
:1057F000D98109F108096D42002D40F3B380A14A17
:105800000F92102D40F3228122461027DDF828B098
:10581000089C05E009F10809103D102D40F31581A1
:1058200001331032072B29922893C9F800A0C9F838
:105830000470EFDD27AA2146584603F06FFC0028CC
:105840007EF4EFAF299A289B0DF1D009E4E70E9F73
:10585000FFF7AABB4FF0FF30FEF7E9BF0E988DF8B7
:105860007F200346BBF1000F03F1040304884FF0CF
:105870000005C0F2B48121F08001079154EA0501CE
:105880000E9317467FF492A8FFF74CBA04331468BE
:105890000E930025FFF7D8B927AA08990A9803F0B4
:1058A0003DFC00287EF4BDAF219D299C0DF1D0095F
:1058B0008AE725A822A921AA032304900292009333
:1058C000CDF804B00391DDE91C230A9800F020FC18
:1058D0005D460646119B462B06EB05047FF4E1AEC0
:1058E0003378302B00F09881219D2C44D9E6BBF110
:1058F000000F08BF4FF0010BA1E6079B43F0200308
:10590000079308F1010898F80030FEF7CEBE27AAE9
:1059100008990A9803F002FC00287EF482AF299CC3
:105920000DF1D009FFF781BB3046FEF789FDA34694
:1059300003460D90FFF701BB2D2709930F9B07939B
:105940008DF87F704FF0000BFFF755B827AA089924
:105950000A9803F0E3FB00287EF463AF299C289BA0
:105960000DF1D0091299C9F8006001330C44072BDE
:1059700029942893C9F804107FF7FEA81AE4219B04
:10598000D81C11DB9B450FDB1393ACE627AA0899C3
:105990000A9803F0C3FB00287EF443AF299C0DF165
:1059A000D0096EE423468FE6119A023A1192013B28
:1059B000002B9DF844202193B8BF5B428DF88C20CA
:1059C000B4BF2D222B22092B8DF88D2040F30B81A3
:1059D0000DF19B0004462C4A82FB0321DA17C2EB2F
:1059E000A10202EB8201A3EB410303F13001092A7A
:1059F000134604F8011DEEDC21463033DAB201F81B
:105A0000012D884240F26F810DF18E01234601E0A5
:105A100013F8012B01F8012B9842F9D1431C1B1BF1
:105A20000DF18E02134423AA9B1A129A1993012A8C
:105A300013440D9340F3FE800D9B169A13440022ED
:105A40000D93139223EAE3735BE6144601330F9A36
:105A500028932C44072B299489E824003FF776AF3C
:105A600009F108097EE727AA08990A9803F056FB6E
:105A700000287EF4D6AE219B299C0DF1D009D0E4FC
:105A800090D4000840D4000867666666062D2B4651
:105A900028BF06230D9323EAE373B3460E971396AC
:105AA00037460993914EFEF7A5BF27AA08990A9891
:105AB00003F034FB00287EF4B4AE219B129A299C9B
:105AC000D31A0DF1D009C4E425A822A921AA0323E1
:105AD000049002920093CDF804B00391DDE91C23F9
